{
  "address": "0x47df419EFBED11925F7E2c7564a77848efa595B2",
  "abi": [
    {
      "inputs": [],
      "stateMutability": "nonpayable",
      "type": "constructor"
    },
    {
      "inputs": [],
      "name": "AmountIsOverAvailableRewardsToClaim",
      "type": "error"
    },
    {
      "inputs": [],
      "name": "AmountRequestedIsZero",
      "type": "error"
    },
    {
      "inputs": [],
      "name": "CallerShouldNotBeThisContract",
      "type": "error"
    },
    {
      "inputs": [],
      "name": "RewardsRateLimitingInEffect",
      "type": "error"
    },
    {
      "inputs": [],
      "name": "TargetAddressIsContractAddress",
      "type": "error"
    },
    {
      "inputs": [],
      "name": "TargetAddressIsZero",
      "type": "error"
    },
    {
      "inputs": [],
      "name": "TotalRewardsAreZero",
      "type": "error"
    },
    {
      "inputs": [],
      "name": "TransferFailed",
      "type": "error"
    },
    {
      "anonymous": false,
      "inputs": [
        {
          "indexed": false,
          "internalType": "address",
          "name": "previousAdmin",
          "type": "address"
        },
        {
          "indexed": false,
          "internalType": "address",
          "name": "newAdmin",
          "type": "address"
        }
      ],
      "name": "AdminChanged",
      "type": "event"
    },
    {
      "anonymous": false,
      "inputs": [
        {
          "indexed": true,
          "internalType": "address",
          "name": "beacon",
          "type": "address"
        }
      ],
      "name": "BeaconUpgraded",
      "type": "event"
    },
    {
      "anonymous": false,
      "inputs": [
        {
          "indexed": true,
          "internalType": "address",
          "name": "to",
          "type": "address"
        },
        {
          "indexed": false,
          "internalType": "uint256",
          "name": "amount",
          "type": "uint256"
        }
      ],
      "name": "BusinessDevTokensTransferred",
      "type": "event"
    },
    {
      "anonymous": false,
      "inputs": [
        {
          "indexed": true,
          "internalType": "address",
          "name": "account",
          "type": "address"
        },
        {
          "indexed": false,
          "internalType": "uint256",
          "name": "amount",
          "type": "uint256"
        }
      ],
      "name": "Claimed",
      "type": "event"
    },
    {
      "anonymous": false,
      "inputs": [
        {
          "indexed": true,
          "internalType": "address",
          "name": "to",
          "type": "address"
        },
        {
          "indexed": false,
          "internalType": "uint256",
          "name": "amount",
          "type": "uint256"
        }
      ],
      "name": "CompanyTokensTransferred",
      "type": "event"
    },
    {
      "anonymous": false,
      "inputs": [
        {
          "indexed": false,
          "internalType": "uint8",
          "name": "version",
          "type": "uint8"
        }
      ],
      "name": "Initialized",
      "type": "event"
    },
    {
      "anonymous": false,
      "inputs": [
        {
          "indexed": false,
          "internalType": "address",
          "name": "account",
          "type": "address"
        }
      ],
      "name": "Paused",
      "type": "event"
    },
    {
      "anonymous": false,
      "inputs": [
        {
          "indexed": true,
          "internalType": "bytes32",
          "name": "role",
          "type": "bytes32"
        },
        {
          "indexed": true,
          "internalType": "bytes32",
          "name": "previousAdminRole",
          "type": "bytes32"
        },
        {
          "indexed": true,
          "internalType": "bytes32",
          "name": "newAdminRole",
          "type": "bytes32"
        }
      ],
      "name": "RoleAdminChanged",
      "type": "event"
    },
    {
      "anonymous": false,
      "inputs": [
        {
          "indexed": true,
          "internalType": "bytes32",
          "name": "role",
          "type": "bytes32"
        },
        {
          "indexed": true,
          "internalType": "address",
          "name": "account",
          "type": "address"
        },
        {
          "indexed": true,
          "internalType": "address",
          "name": "sender",
          "type": "address"
        }
      ],
      "name": "RoleGranted",
      "type": "event"
    },
    {
      "anonymous": false,
      "inputs": [
        {
          "indexed": true,
          "internalType": "bytes32",
          "name": "role",
          "type": "bytes32"
        },
        {
          "indexed": true,
          "internalType": "address",
          "name": "account",
          "type": "address"
        },
        {
          "indexed": true,
          "internalType": "address",
          "name": "sender",
          "type": "address"
        }
      ],
      "name": "RoleRevoked",
      "type": "event"
    },
    {
      "anonymous": false,
      "inputs": [
        {
          "indexed": false,
          "internalType": "uint256",
          "name": "cycle",
          "type": "uint256"
        },
        {
          "indexed": false,
          "internalType": "bytes32",
          "name": "root",
          "type": "bytes32"
        }
      ],
      "name": "SubmittedRootHash",
      "type": "event"
    },
    {
      "anonymous": false,
      "inputs": [
        {
          "indexed": false,
          "internalType": "address",
          "name": "account",
          "type": "address"
        }
      ],
      "name": "Unpaused",
      "type": "event"
    },
    {
      "anonymous": false,
      "inputs": [
        {
          "indexed": true,
          "internalType": "address",
          "name": "implementation",
          "type": "address"
        }
      ],
      "name": "Upgraded",
      "type": "event"
    },
    {
      "inputs": [],
      "name": "DEFAULT_ADMIN_ROLE",
      "outputs": [
        {
          "internalType": "bytes32",
          "name": "",
          "type": "bytes32"
        }
      ],
      "stateMutability": "view",
      "type": "function"
    },
    {
      "inputs": [],
      "name": "DISTRIBUTOR_ROLE",
      "outputs": [
        {
          "internalType": "bytes32",
          "name": "",
          "type": "bytes32"
        }
      ],
      "stateMutability": "view",
      "type": "function"
    },
    {
      "inputs": [],
      "name": "UPGRADER_ROLE",
      "outputs": [
        {
          "internalType": "bytes32",
          "name": "",
          "type": "bytes32"
        }
      ],
      "stateMutability": "view",
      "type": "function"
    },
    {
      "inputs": [
        {
          "internalType": "uint256",
          "name": "amount",
          "type": "uint256"
        },
        {
          "internalType": "uint256",
          "name": "totalRewards",
          "type": "uint256"
        },
        {
          "internalType": "uint256",
          "name": "_cycle",
          "type": "uint256"
        },
        {
          "internalType": "bytes32[]",
          "name": "proof",
          "type": "bytes32[]"
        }
      ],
      "name": "claim",
      "outputs": [],
      "stateMutability": "nonpayable",
      "type": "function"
    },
    {
      "inputs": [],
      "name": "claimedRewards",
      "outputs": [
        {
          "internalType": "uint256",
          "name": "",
          "type": "uint256"
        }
      ],
      "stateMutability": "view",
      "type": "function"
    },
    {
      "inputs": [
        {
          "internalType": "address",
          "name": "",
          "type": "address"
        }
      ],
      "name": "claims",
      "outputs": [
        {
          "internalType": "uint256",
          "name": "",
          "type": "uint256"
        }
      ],
      "stateMutability": "view",
      "type": "function"
    },
    {
      "inputs": [],
      "name": "cycle",
      "outputs": [
        {
          "internalType": "uint256",
          "name": "",
          "type": "uint256"
        }
      ],
      "stateMutability": "view",
      "type": "function"
    },
    {
      "inputs": [
        {
          "internalType": "address",
          "name": "account",
          "type": "address"
        },
        {
          "internalType": "uint256",
          "name": "amount",
          "type": "uint256"
        },
        {
          "internalType": "uint256",
          "name": "_cycle",
          "type": "uint256"
        },
        {
          "internalType": "bytes32[]",
          "name": "proof",
          "type": "bytes32[]"
        }
      ],
      "name": "getRemainingAllocatedRewards",
      "outputs": [
        {
          "internalType": "uint256",
          "name": "",
          "type": "uint256"
        }
      ],
      "stateMutability": "view",
      "type": "function"
    },
    {
      "inputs": [
        {
          "internalType": "bytes32",
          "name": "role",
          "type": "bytes32"
        }
      ],
      "name": "getRoleAdmin",
      "outputs": [
        {
          "internalType": "bytes32",
          "name": "",
          "type": "bytes32"
        }
      ],
      "stateMutability": "view",
      "type": "function"
    },
    {
      "inputs": [
        {
          "internalType": "bytes32",
          "name": "role",
          "type": "bytes32"
        },
        {
          "internalType": "uint256",
          "name": "index",
          "type": "uint256"
        }
      ],
      "name": "getRoleMember",
      "outputs": [
        {
          "internalType": "address",
          "name": "",
          "type": "address"
        }
      ],
      "stateMutability": "view",
      "type": "function"
    },
    {
      "inputs": [
        {
          "internalType": "bytes32",
          "name": "role",
          "type": "bytes32"
        }
      ],
      "name": "getRoleMemberCount",
      "outputs": [
        {
          "internalType": "uint256",
          "name": "",
          "type": "uint256"
        }
      ],
      "stateMutability": "view",
      "type": "function"
    },
    {
      "inputs": [
        {
          "internalType": "bytes32",
          "name": "role",
          "type": "bytes32"
        },
        {
          "internalType": "address",
          "name": "account",
          "type": "address"
        }
      ],
      "name": "grantRole",
      "outputs": [],
      "stateMutability": "nonpayable",
      "type": "function"
    },
    {
      "inputs": [
        {
          "internalType": "bytes32",
          "name": "role",
          "type": "bytes32"
        },
        {
          "internalType": "address",
          "name": "account",
          "type": "address"
        }
      ],
      "name": "hasRole",
      "outputs": [
        {
          "internalType": "bool",
          "name": "",
          "type": "bool"
        }
      ],
      "stateMutability": "view",
      "type": "function"
    },
    {
      "inputs": [
        {
          "internalType": "address",
          "name": "_token",
          "type": "address"
        }
      ],
      "name": "initialize",
      "outputs": [],
      "stateMutability": "nonpayable",
      "type": "function"
    },
    {
      "inputs": [],
      "name": "pause",
      "outputs": [],
      "stateMutability": "nonpayable",
      "type": "function"
    },
    {
      "inputs": [],
      "name": "paused",
      "outputs": [
        {
          "internalType": "bool",
          "name": "",
          "type": "bool"
        }
      ],
      "stateMutability": "view",
      "type": "function"
    },
    {
      "inputs": [],
      "name": "proxiableUUID",
      "outputs": [
        {
          "internalType": "bytes32",
          "name": "",
          "type": "bytes32"
        }
      ],
      "stateMutability": "view",
      "type": "function"
    },
    {
      "inputs": [
        {
          "internalType": "bytes32",
          "name": "role",
          "type": "bytes32"
        },
        {
          "internalType": "address",
          "name": "account",
          "type": "address"
        }
      ],
      "name": "renounceRole",
      "outputs": [],
      "stateMutability": "nonpayable",
      "type": "function"
    },
    {
      "inputs": [
        {
          "internalType": "bytes32",
          "name": "role",
          "type": "bytes32"
        },
        {
          "internalType": "address",
          "name": "account",
          "type": "address"
        }
      ],
      "name": "revokeRole",
      "outputs": [],
      "stateMutability": "nonpayable",
      "type": "function"
    },
    {
      "inputs": [
        {
          "internalType": "uint256",
          "name": "",
          "type": "uint256"
        }
      ],
      "name": "roots",
      "outputs": [
        {
          "internalType": "bytes32",
          "name": "",
          "type": "bytes32"
        }
      ],
      "stateMutability": "view",
      "type": "function"
    },
    {
      "inputs": [
        {
          "internalType": "bytes32",
          "name": "root",
          "type": "bytes32"
        }
      ],
      "name": "submitMerkleRoot",
      "outputs": [
        {
          "internalType": "bool",
          "name": "",
          "type": "bool"
        }
      ],
      "stateMutability": "nonpayable",
      "type": "function"
    },
    {
      "inputs": [
        {
          "internalType": "bytes4",
          "name": "interfaceId",
          "type": "bytes4"
        }
      ],
      "name": "supportsInterface",
      "outputs": [
        {
          "internalType": "bool",
          "name": "",
          "type": "bool"
        }
      ],
      "stateMutability": "view",
      "type": "function"
    },
    {
      "inputs": [],
      "name": "token",
      "outputs": [
        {
          "internalType": "contract IWeatherXM",
          "name": "",
          "type": "address"
        }
      ],
      "stateMutability": "view",
      "type": "function"
    },
    {
      "inputs": [
        {
          "internalType": "address",
          "name": "to",
          "type": "address"
        },
        {
          "internalType": "uint256",
          "name": "amount",
          "type": "uint256"
        },
        {
          "internalType": "uint256",
          "name": "totalRewards",
          "type": "uint256"
        },
        {
          "internalType": "uint256",
          "name": "_cycle",
          "type": "uint256"
        },
        {
          "internalType": "bytes32[]",
          "name": "proof",
          "type": "bytes32[]"
        }
      ],
      "name": "transferRewards",
      "outputs": [
        {
          "internalType": "bool",
          "name": "",
          "type": "bool"
        }
      ],
      "stateMutability": "nonpayable",
      "type": "function"
    },
    {
      "inputs": [],
      "name": "unpause",
      "outputs": [],
      "stateMutability": "nonpayable",
      "type": "function"
    },
    {
      "inputs": [
        {
          "internalType": "address",
          "name": "newImplementation",
          "type": "address"
        }
      ],
      "name": "upgradeTo",
      "outputs": [],
      "stateMutability": "nonpayable",
      "type": "function"
    },
    {
      "inputs": [
        {
          "internalType": "address",
          "name": "newImplementation",
          "type": "address"
        },
        {
          "internalType": "bytes",
          "name": "data",
          "type": "bytes"
        }
      ],
      "name": "upgradeToAndCall",
      "outputs": [],
      "stateMutability": "payable",
      "type": "function"
    }
  ],
  "transactionHash": "0x64057d4cbc52634f1f97d4d735707c65acefbb86d08aca40552807c0791c48b5",
  "args": [],
  "numDeployments": 1,
  "solcInputHash": "b88c061c27a19ac14671e8e7b8838a1d",
  "bytecode": "0x60a060405230608052348015610013575f80fd5b5061001c610021565b6100dd565b5f54610100900460ff161561008c5760405162461bcd60e51b815260206004820152602760248201527f496e697469616c697a61626c653a20636f6e747261637420697320696e697469604482015266616c697a696e6760c81b606482015260840160405180910390fd5b5f5460ff908116146100db575f805460ff191660ff9081179091556040519081527f7f26b83ff96e1f2b6a682f133852f6798a09c465da95921460cefb38474024989060200160405180910390a15b565b608051612272620001125f395f81816105fb0152818161063b015281816106ea0152818161072a01526107b701526122725ff3fe608060405260043610610195575f3560e01c80639010d07c116100e7578063cda5de8311610087578063f0bd87cc11610062578063f0bd87cc14610476578063f72c0d8b146104a9578063f99e54d1146104dc578063fc0c546a146104fb575f80fd5b8063cda5de8314610419578063d547741f14610438578063ea25e17614610457575f80fd5b8063c2b40ae4116100c2578063c2b40ae414610383578063c4d66de8146103af578063c6788bdd146103ce578063ca15c873146103fa575f80fd5b80639010d07c1461031a57806391d1485414610351578063a217fddf14610370575f80fd5b80633f4ba83a116101525780635c975abb1161012d5780635c975abb146102b95780636190c9d5146102d15780638456cb59146102e75780638839ab89146102fb575f80fd5b80633f4ba83a1461027e5780634f1ef2861461029257806352d1902d146102a5575f80fd5b806301ffc9a71461019957806322e9c08d146101cd578063248a9ca3146101f15780632f2ff15d1461021f57806336568abe146102405780633659cfe61461025f575b5f80fd5b3480156101a4575f80fd5b506101b86101b3366004611c71565b61051b565b60405190151581526020015b60405180910390f35b3480156101d8575f80fd5b506101e36101965481565b6040519081526020016101c4565b3480156101fc575f80fd5b506101e361020b366004611c98565b5f90815260fb602052604090206001015490565b34801561022a575f80fd5b5061023e610239366004611cca565b610545565b005b34801561024b575f80fd5b5061023e61025a366004611cca565b61056e565b34801561026a575f80fd5b5061023e610279366004611cf4565b6105f1565b348015610289575f80fd5b5061023e6106ce565b61023e6102a0366004611d21565b6106e0565b3480156102b0575f80fd5b506101e36107ab565b3480156102c4575f80fd5b5061015f5460ff166101b8565b3480156102dc575f80fd5b506101e36101945481565b3480156102f2575f80fd5b5061023e61085c565b348015610306575f80fd5b506101e3610315366004611e25565b61086e565b348015610325575f80fd5b50610339610334366004611e88565b610890565b6040516001600160a01b0390911681526020016101c4565b34801561035c575f80fd5b506101b861036b366004611cca565b6108af565b34801561037b575f80fd5b506101e35f81565b34801561038e575f80fd5b506101e361039d366004611c98565b6101936020525f908152604090205481565b3480156103ba575f80fd5b5061023e6103c9366004611cf4565b6108d9565b3480156103d9575f80fd5b506101e36103e8366004611cf4565b6101926020525f908152604090205481565b348015610405575f80fd5b506101e3610414366004611c98565b610a51565b348015610424575f80fd5b506101b8610433366004611c98565b610a68565b348015610443575f80fd5b5061023e610452366004611cca565b610b46565b348015610462575f80fd5b5061023e610471366004611ea8565b610b6a565b348015610481575f80fd5b506101e37ffbd454f36a7e1a388bd6fc3ab10d434aa4578f811acbbcf33afb1c697486313c81565b3480156104b4575f80fd5b506101e37f189ab7a9244df0848122154315af71fe140f3db0fe014031783b0946b8c9d2e381565b3480156104e7575f80fd5b506101b86104f6366004611ee7565b610bcf565b348015610506575f80fd5b5061019154610339906001600160a01b031681565b5f6001600160e01b03198216635a05180f60e01b148061053f575061053f82610dc2565b92915050565b5f82815260fb602052604090206001015461055f81610df6565b6105698383610e00565b505050565b6001600160a01b03811633146105e35760405162461bcd60e51b815260206004820152602f60248201527f416363657373436f6e74726f6c3a2063616e206f6e6c792072656e6f756e636560448201526e103937b632b9903337b91039b2b63360891b60648201526084015b60405180910390fd5b6105ed8282610e22565b5050565b6001600160a01b037f00000000000000000000000000000000000000000000000000000000000000001630036106395760405162461bcd60e51b81526004016105da90611f53565b7f00000000000000000000000000000000000000000000000000000000000000006001600160a01b03166106815f805160206121f6833981519152546001600160a01b031690565b6001600160a01b0316146106a75760405162461bcd60e51b81526004016105da90611f9f565b6106b081610e44565b604080515f808252602082019092526106cb91839190610e6e565b50565b5f6106d881610df6565b6106cb610fd8565b6001600160a01b037f00000000000000000000000000000000000000000000000000000000000000001630036107285760405162461bcd60e51b81526004016105da90611f53565b7f00000000000000000000000000000000000000000000000000000000000000006001600160a01b03166107705f805160206121f6833981519152546001600160a01b031690565b6001600160a01b0316146107965760405162461bcd60e51b81526004016105da90611f9f565b61079f82610e44565b6105ed82826001610e6e565b5f306001600160a01b037f0000000000000000000000000000000000000000000000000000000000000000161461084a5760405162461bcd60e51b815260206004820152603860248201527f555550535570677261646561626c653a206d757374206e6f742062652063616c60448201527f6c6564207468726f7567682064656c656761746563616c6c000000000000000060648201526084016105da565b505f805160206121f683398151915290565b5f61086681610df6565b6106cb61102b565b5f610877611069565b61088486868686866110b2565b90505b95945050505050565b5f82815261012d602052604081206108a89083611139565b9392505050565b5f91825260fb602090815260408084206001600160a01b0393909316845291905290205460ff1690565b5f54610100900460ff16158080156108f757505f54600160ff909116105b806109105750303b15801561091057505f5460ff166001145b6109735760405162461bcd60e51b815260206004820152602e60248201527f496e697469616c697a61626c653a20636f6e747261637420697320616c72656160448201526d191e481a5b9a5d1a585b1a5e995960921b60648201526084016105da565b5f805460ff191660011790558015610994575f805461ff0019166101001790555b61099c611144565b6109a4611144565b6109ac61116a565b6109b4611198565b6109be5f336111c6565b6109e87f189ab7a9244df0848122154315af71fe140f3db0fe014031783b0946b8c9d2e3336111c6565b61019180546001600160a01b0319166001600160a01b038416179055426101955580156105ed575f805461ff0019169055604051600181527f7f26b83ff96e1f2b6a682f133852f6798a09c465da95921460cefb38474024989060200160405180910390a15050565b5f81815261012d6020526040812061053f906111d0565b5f7ffbd454f36a7e1a388bd6fc3ab10d434aa4578f811acbbcf33afb1c697486313c610a9381610df6565b6201518061019554421015610abb576040516396ace71160e01b815260040160405180910390fd5b61019554610ac990826111d9565b61019555610ad5611069565b61019480545f818152610193602052604081208790558254919290610af983611fff565b90915550506101945460408051918252602082018790527f896675adf312ce3c7847c39a493487e9ba2bd568e482fae010cd7ad524d725b8910160405180910390a1506001949350505050565b5f82815260fb6020526040902060010154610b6081610df6565b6105698383610e22565b610b72611069565b610b7a6111e4565b610b8833868686868661123d565b5060405185815233907fd8138f8a3f377c5259ca548e70e4c2de94f129f5a11036a15b69513cba2b426a9060200160405180910390a2610bc86001606555565b5050505050565b5f7ffbd454f36a7e1a388bd6fc3ab10d434aa4578f811acbbcf33afb1c697486313c610bfa81610df6565b610c02611069565b610c0a6111e4565b876001600160a01b038116610c32576040516306a0d46d60e51b815260040160405180910390fd5b306001600160a01b03821603610c5b5760405163128a9f0160e31b815260040160405180910390fd5b865f03610c7b57604051630c043a5560e11b815260040160405180910390fd5b875f03610c9b5760405163f4bb5e6160e01b815260040160405180910390fd5b610ca889888888886110b2565b881115610cc857604051636c42a54b60e01b815260040160405180910390fd5b6001600160a01b0389165f9081526101926020526040902054610ceb90896111d9565b6001600160a01b038a165f908152610192602052604090205561019654610d1290896111d9565b610196556101915460405163a9059cbb60e01b81526001600160a01b038b81166004830152602482018b90529091169063a9059cbb906044016020604051808303815f875af1158015610d67573d5f803e3d5ffd5b505050506040513d601f19601f82011682018060405250810190610d8b9190612017565b610da8576040516312171d8360e31b815260040160405180910390fd5b6001925050610db76001606555565b509695505050505050565b5f6001600160e01b03198216637965db0b60e01b148061053f57506301ffc9a760e01b6001600160e01b031983161461053f565b6106cb813361139f565b610e0a82826113f8565b5f82815261012d60205260409020610569908261147d565b610e2c8282611491565b5f82815261012d6020526040902061056990826114f7565b7f189ab7a9244df0848122154315af71fe140f3db0fe014031783b0946b8c9d2e36105ed81610df6565b7f4910fdfa16fed3260ed0e7147f7cc6da11a60208b5b9406d12a635614ffd91435460ff1615610ea1576105698361150b565b826001600160a01b03166352d1902d6040518163ffffffff1660e01b8152600401602060405180830381865afa925050508015610efb575060408051601f3d908101601f19168201909252610ef891810190612036565b60015b610f5e5760405162461bcd60e51b815260206004820152602e60248201527f45524331393637557067726164653a206e657720696d706c656d656e7461746960448201526d6f6e206973206e6f74205555505360901b60648201526084016105da565b5f805160206121f68339815191528114610fcc5760405162461bcd60e51b815260206004820152602960248201527f45524331393637557067726164653a20756e737570706f727465642070726f786044820152681a58589b195555525160ba1b60648201526084016105da565b506105698383836115a6565b610fe06115d0565b61015f805460ff191690557f5db9ee0a495bf2e6ff9c91a7834c1ba4fdd244a5e8aa4e537bd38aeae4b073aa335b6040516001600160a01b03909116815260200160405180910390a1565b611033611069565b61015f805460ff191660011790557f62e78cea01bee320cd4e420270b5ea74000d11b0c9f74754ebdbfc544b05a25861100e3390565b61015f5460ff16156110b05760405162461bcd60e51b815260206004820152601060248201526f14185d5cd8589b194e881c185d5cd95960821b60448201526064016105da565b565b5f845f036110d35760405163f4bb5e6160e01b815260040160405180910390fd5b5f6110e1878787878761161a565b6001600160a01b0388165f9081526101926020526040902054909150811115611130576001600160a01b0387165f9081526101926020526040902054611128908290611701565b915050610887565b5f915050610887565b5f6108a8838361170c565b5f54610100900460ff166110b05760405162461bcd60e51b81526004016105da9061204d565b5f54610100900460ff166111905760405162461bcd60e51b81526004016105da9061204d565b6110b0611732565b5f54610100900460ff166111be5760405162461bcd60e51b81526004016105da9061204d565b6110b0611765565b6105ed8282610e00565b5f61053f825490565b5f6108a88284612098565b6002606554036112365760405162461bcd60e51b815260206004820152601f60248201527f5265656e7472616e637947756172643a207265656e7472616e742063616c6c0060448201526064016105da565b6002606555565b5f845f0361125e57604051630c043a5560e11b815260040160405180910390fd5b855f0361127e5760405163f4bb5e6160e01b815260040160405180910390fd5b61128b33868686866110b2565b8611156112ab57604051636c42a54b60e01b815260040160405180910390fd5b6001600160a01b0387165f90815261019260205260409020546112ce90876111d9565b6001600160a01b0388165f9081526101926020526040902055610196546112f590876111d9565b610196556101915460405163a9059cbb60e01b81526001600160a01b038981166004830152602482018990529091169063a9059cbb906044016020604051808303815f875af115801561134a573d5f803e3d5ffd5b505050506040513d601f19601f8201168201806040525081019061136e9190612017565b61138b576040516312171d8360e31b815260040160405180910390fd5b5060019695505050505050565b6001606555565b6113a982826108af565b6105ed576113b68161178b565b6113c183602061179d565b6040516020016113d29291906120cd565b60408051601f198184030181529082905262461bcd60e51b82526105da91600401612141565b61140282826108af565b6105ed575f82815260fb602090815260408083206001600160a01b03851684529091529020805460ff191660011790556114393390565b6001600160a01b0316816001600160a01b0316837f2f8788117e7eff1d82e926ec794901d17c78024a50270940304540a733656f0d60405160405180910390a45050565b5f6108a8836001600160a01b038416611933565b61149b82826108af565b156105ed575f82815260fb602090815260408083206001600160a01b0385168085529252808320805460ff1916905551339285917ff6391f5c32d9c69d2a47ea670b442974b53935d1edc7fd64eb21e047a839171b9190a45050565b5f6108a8836001600160a01b03841661197f565b6001600160a01b0381163b6115785760405162461bcd60e51b815260206004820152602d60248201527f455243313936373a206e657720696d706c656d656e746174696f6e206973206e60448201526c1bdd08184818dbdb9d1c9858dd609a1b60648201526084016105da565b5f805160206121f683398151915280546001600160a01b0319166001600160a01b0392909216919091179055565b6115af83611a62565b5f825111806115bb5750805b15610569576115ca8383611aa1565b50505050565b61015f5460ff166110b05760405162461bcd60e51b815260206004820152601460248201527314185d5cd8589b194e881b9bdd081c185d5cd95960621b60448201526064016105da565b604080516001600160a01b03871660208201529081018590525f90819060600160408051601f19818403018152828252805160209182012090830152016040516020818303038152906040528051906020012090506116ba8484808060200260200160405190810160405280939291908181526020018383602002808284375f9201829052508a815261019360205260409020549250859150611ac69050565b6116f65760405162461bcd60e51b815260206004820152600d60248201526c24a72b20a624a210282927a7a360991b60448201526064016105da565b509395945050505050565b5f6108a88284612173565b5f825f01828154811061172157611721612186565b905f5260205f200154905092915050565b5f54610100900460ff166117585760405162461bcd60e51b81526004016105da9061204d565b61015f805460ff19169055565b5f54610100900460ff166113985760405162461bcd60e51b81526004016105da9061204d565b606061053f6001600160a01b03831660145b60605f6117ab83600261219a565b6117b6906002612098565b67ffffffffffffffff8111156117ce576117ce611d0d565b6040519080825280601f01601f1916602001820160405280156117f8576020820181803683370190505b509050600360fc1b815f8151811061181257611812612186565b60200101906001600160f81b03191690815f1a905350600f60fb1b8160018151811061184057611840612186565b60200101906001600160f81b03191690815f1a9053505f61186284600261219a565b61186d906001612098565b90505b60018111156118e4576f181899199a1a9b1b9c1cb0b131b232b360811b85600f16601081106118a1576118a1612186565b1a60f81b8282815181106118b7576118b7612186565b60200101906001600160f81b03191690815f1a90535060049490941c936118dd816121b1565b9050611870565b5083156108a85760405162461bcd60e51b815260206004820181905260248201527f537472696e67733a20686578206c656e67746820696e73756666696369656e7460448201526064016105da565b5f81815260018301602052604081205461197857508154600181810184555f84815260208082209093018490558454848252828601909352604090209190915561053f565b505f61053f565b5f8181526001830160205260408120548015611a59575f6119a1600183612173565b85549091505f906119b490600190612173565b9050818114611a13575f865f0182815481106119d2576119d2612186565b905f5260205f200154905080875f0184815481106119f2576119f2612186565b5f918252602080832090910192909255918252600188019052604090208390555b8554869080611a2457611a246121c6565b600190038181905f5260205f20015f90559055856001015f8681526020019081526020015f205f90556001935050505061053f565b5f91505061053f565b611a6b8161150b565b6040516001600160a01b038216907fbc7cd75a20ee27fd9adebab32041f755214dbc6bffa90cc0225b39da2e5c2d3b905f90a250565b60606108a8838360405180606001604052806027815260200161221660279139611adb565b5f82611ad28584611b4f565b14949350505050565b60605f80856001600160a01b031685604051611af791906121da565b5f60405180830381855af49150503d805f8114611b2f576040519150601f19603f3d011682016040523d82523d5f602084013e611b34565b606091505b5091509150611b4586838387611b9b565b9695505050505050565b5f81815b8451811015611b9357611b7f82868381518110611b7257611b72612186565b6020026020010151611c1b565b915080611b8b81611fff565b915050611b53565b509392505050565b60608315611c095782515f03611c02576001600160a01b0385163b611c025760405162461bcd60e51b815260206004820152601d60248201527f416464726573733a2063616c6c20746f206e6f6e2d636f6e747261637400000060448201526064016105da565b5081611c13565b611c138383611c47565b949350505050565b5f818310611c35575f8281526020849052604090206108a8565b5f8381526020839052604090206108a8565b815115611c575781518083602001fd5b8060405162461bcd60e51b81526004016105da9190612141565b5f60208284031215611c81575f80fd5b81356001600160e01b0319811681146108a8575f80fd5b5f60208284031215611ca8575f80fd5b5035919050565b80356001600160a01b0381168114611cc5575f80fd5b919050565b5f8060408385031215611cdb575f80fd5b82359150611ceb60208401611caf565b90509250929050565b5f60208284031215611d04575f80fd5b6108a882611caf565b634e487b7160e01b5f52604160045260245ffd5b5f8060408385031215611d32575f80fd5b611d3b83611caf565b9150602083013567ffffffffffffffff80821115611d57575f80fd5b818501915085601f830112611d6a575f80fd5b813581811115611d7c57611d7c611d0d565b604051601f8201601f19908116603f01168101908382118183101715611da457611da4611d0d565b81604052828152886020848701011115611dbc575f80fd5b826020860160208301375f6020848301015280955050505050509250929050565b5f8083601f840112611ded575f80fd5b50813567ffffffffffffffff811115611e04575f80fd5b6020830191508360208260051b8501011115611e1e575f80fd5b9250929050565b5f805f805f60808688031215611e39575f80fd5b611e4286611caf565b94506020860135935060408601359250606086013567ffffffffffffffff811115611e6b575f80fd5b611e7788828901611ddd565b969995985093965092949392505050565b5f8060408385031215611e99575f80fd5b50508035926020909101359150565b5f805f805f60808688031215611ebc575f80fd5b853594506020860135935060408601359250606086013567ffffffffffffffff811115611e6b575f80fd5b5f805f805f8060a08789031215611efc575f80fd5b611f0587611caf565b9550602087013594506040870135935060608701359250608087013567ffffffffffffffff811115611f35575f80fd5b611f4189828a01611ddd565b979a9699509497509295939492505050565b6020808252602c908201527f46756e6374696f6e206d7573742062652063616c6c6564207468726f7567682060408201526b19195b1959d85d1958d85b1b60a21b606082015260800190565b6020808252602c908201527f46756e6374696f6e206d7573742062652063616c6c6564207468726f7567682060408201526b6163746976652070726f787960a01b606082015260800190565b634e487b7160e01b5f52601160045260245ffd5b5f6001820161201057612010611feb565b5060010190565b5f60208284031215612027575f80fd5b815180151581146108a8575f80fd5b5f60208284031215612046575f80fd5b5051919050565b6020808252602b908201527f496e697469616c697a61626c653a20636f6e7472616374206973206e6f74206960408201526a6e697469616c697a696e6760a81b606082015260800190565b8082018082111561053f5761053f611feb565b5f5b838110156120c55781810151838201526020016120ad565b50505f910152565b7f416363657373436f6e74726f6c3a206163636f756e742000000000000000000081525f83516121048160178501602088016120ab565b7001034b99036b4b9b9b4b733903937b6329607d1b60179184019182015283516121358160288401602088016120ab565b01602801949350505050565b602081525f825180602084015261215f8160408501602087016120ab565b601f01601f19169190910160400192915050565b8181038181111561053f5761053f611feb565b634e487b7160e01b5f52603260045260245ffd5b808202811582820484141761053f5761053f611feb565b5f816121bf576121bf611feb565b505f190190565b634e487b7160e01b5f52603160045260245ffd5b5f82516121eb8184602087016120ab565b919091019291505056fe360894a13ba1a3210667c828492db98dca3e2076cc3735a920a3ca505d382bbc416464726573733a206c6f772d6c6576656c2064656c65676174652063616c6c206661696c6564a264697066735822122097e3a635bad964a6b91eac0e2b45311ae0bb49fa472d88c58690b046a951057764736f6c63430008140033",
  "devdoc": {
    "errors": {
      "RewardsRateLimitingInEffect()": [
        {
          "details": "Custom errors"
        }
      ]
    },
    "events": {
      "AdminChanged(address,address)": {
        "details": "Emitted when the admin account has changed."
      },
      "BeaconUpgraded(address)": {
        "details": "Emitted when the beacon is changed."
      },
      "BusinessDevTokensTransferred(address,uint256)": {
        "details": "Emitted when business development are transferred This event contains the target address for business development tokens and the amount"
      },
      "Claimed(address,uint256)": {
        "details": "Emitted when rewards are claimed by user This event contains user's address and the amount which was claimed"
      },
      "CompanyTokensTransferred(address,uint256)": {
        "details": "Emitted when company tokens are transferred This event contains the target address for company tokens and the amount"
      },
      "Initialized(uint8)": {
        "details": "Triggered when the contract has been initialized or reinitialized."
      },
      "Paused(address)": {
        "details": "Emitted when the pause is triggered by `account`."
      },
      "RoleAdminChanged(bytes32,bytes32,bytes32)": {
        "details": "Emitted when `newAdminRole` is set as ``role``'s admin role, replacing `previousAdminRole` `DEFAULT_ADMIN_ROLE` is the starting admin for all roles, despite {RoleAdminChanged} not being emitted signaling this. _Available since v3.1._"
      },
      "RoleGranted(bytes32,address,address)": {
        "details": "Emitted when `account` is granted `role`. `sender` is the account that originated the contract call, an admin role bearer except when using {AccessControl-_setupRole}."
      },
      "RoleRevoked(bytes32,address,address)": {
        "details": "Emitted when `account` is revoked `role`. `sender` is the account that originated the contract call:   - if using `revokeRole`, it is the admin role bearer   - if using `renounceRole`, it is the role bearer (i.e. `account`)"
      },
      "SubmittedRootHash(uint256,bytes32)": {
        "details": "Emitted when root hash is submitted This event contains the root hash and the cycle indicated when it was submitted"
      },
      "Unpaused(address)": {
        "details": "Emitted when the pause is lifted by `account`."
      },
      "Upgraded(address)": {
        "details": "Emitted when the implementation is upgraded."
      }
    },
    "kind": "dev",
    "methods": {
      "claim(uint256,uint256,uint256,bytes32[])": {
        "details": "Anyone can claim own rewards by submitting the amount and a proof. The amount should be lower or equal to the available allocated to withdraw.",
        "params": {
          "_cycle": "The desired cycle for which to choose the root hash",
          "amount": "The amount of tokens to claim",
          "proof": "The _proof that enables the claim of the requested amount of tokens ",
          "totalRewards": "The cumulative amount of rewards up to the point of the requested cycle"
        }
      },
      "constructor": {
        "custom:oz-upgrades-unsafe-allow": "constructor"
      },
      "getRemainingAllocatedRewards(address,uint256,uint256,bytes32[])": {
        "params": {
          "_cycle": "cycle for which to choose the root hash",
          "account": "The account of the recipient",
          "amount": "The cumulative amount of rewards up to the selected cycle",
          "proof": "The recipient's proof "
        }
      },
      "getRoleAdmin(bytes32)": {
        "details": "Returns the admin role that controls `role`. See {grantRole} and {revokeRole}. To change a role's admin, use {_setRoleAdmin}."
      },
      "getRoleMember(bytes32,uint256)": {
        "details": "Returns one of the accounts that have `role`. `index` must be a value between 0 and {getRoleMemberCount}, non-inclusive. Role bearers are not sorted in any particular way, and their ordering may change at any point. WARNING: When using {getRoleMember} and {getRoleMemberCount}, make sure you perform all queries on the same block. See the following https://forum.openzeppelin.com/t/iterating-over-elements-on-enumerableset-in-openzeppelin-contracts/2296[forum post] for more information."
      },
      "getRoleMemberCount(bytes32)": {
        "details": "Returns the number of accounts that have `role`. Can be used together with {getRoleMember} to enumerate all bearers of a role."
      },
      "grantRole(bytes32,address)": {
        "details": "Grants `role` to `account`. If `account` had not been already granted `role`, emits a {RoleGranted} event. Requirements: - the caller must have ``role``'s admin role. May emit a {RoleGranted} event."
      },
      "hasRole(bytes32,address)": {
        "details": "Returns `true` if `account` has been granted `role`."
      },
      "paused()": {
        "details": "Returns true if the contract is paused, and false otherwise."
      },
      "proxiableUUID()": {
        "details": "Implementation of the ERC1822 {proxiableUUID} function. This returns the storage slot used by the implementation. It is used to validate the implementation's compatibility when performing an upgrade. IMPORTANT: A proxy pointing at a proxiable contract should not be considered proxiable itself, because this risks bricking a proxy that upgrades to it, by delegating to itself until out of gas. Thus it is critical that this function revert if invoked through a proxy. This is guaranteed by the `notDelegated` modifier."
      },
      "renounceRole(bytes32,address)": {
        "details": "Revokes `role` from the calling account. Roles are often managed via {grantRole} and {revokeRole}: this function's purpose is to provide a mechanism for accounts to lose their privileges if they are compromised (such as when a trusted device is misplaced). If the calling account had been revoked `role`, emits a {RoleRevoked} event. Requirements: - the caller must be `account`. May emit a {RoleRevoked} event."
      },
      "revokeRole(bytes32,address)": {
        "details": "Revokes `role` from `account`. If `account` had been granted `role`, emits a {RoleRevoked} event. Requirements: - the caller must have ``role``'s admin role. May emit a {RoleRevoked} event."
      },
      "submitMerkleRoot(bytes32)": {
        "details": "The root hash is calculated of chain and submitted every day. The root hash is stored also off chain in order to calculate each recipient's daily proof if requested for withdrawal. The root hashes are stored in a mapping where the cycle is the accessor. For every cycle there is only one root hash.",
        "params": {
          "root": "The root hash containing the cumulative rewards plus the daily rewards. "
        }
      },
      "supportsInterface(bytes4)": {
        "details": "See {IERC165-supportsInterface}."
      },
      "transferRewards(address,uint256,uint256,uint256,bytes32[])": {
        "details": "Receives the amount and proof for a specific recipient defined by the address and transfers the rewards. The amount should be lower or equal to the available rewards to transfer.",
        "params": {
          "_cycle": "The desired cycle for which to choose the root hash",
          "amount": "The amount to transfer (in WEI)",
          "proof": "The _proof that enables the claim of the requested amount of tokens ",
          "to": "The recipient's address",
          "totalRewards": "The cumulative amount of rewards up to the point of the requested cycle"
        }
      },
      "upgradeTo(address)": {
        "custom:oz-upgrades-unsafe-allow-reachable": "delegatecall",
        "details": "Upgrade the implementation of the proxy to `newImplementation`. Calls {_authorizeUpgrade}. Emits an {Upgraded} event."
      },
      "upgradeToAndCall(address,bytes)": {
        "custom:oz-upgrades-unsafe-allow-reachable": "delegatecall",
        "details": "Upgrade the implementation of the proxy to `newImplementation`, and subsequently execute the function call encoded in `data`. Calls {_authorizeUpgrade}. Emits an {Upgraded} event."
      }
    },
    "title": "RewardPool contract.",
    "version": 1
  },
  "userdoc": {
    "kind": "user",
    "methods": {
      "claim(uint256,uint256,uint256,bytes32[])": {
        "notice": "Claim rewards."
      },
      "getRemainingAllocatedRewards(address,uint256,uint256,bytes32[])": {
        "notice": "Get remaining rewards to claim."
      },
      "submitMerkleRoot(bytes32)": {
        "notice": "Submit root hash for rewards."
      },
      "transferRewards(address,uint256,uint256,uint256,bytes32[])": {
        "notice": "Transfer rewards to a recipient."
      }
    },
    "notice": "This constract serves as a rewards allocation pool. ",
    "version": 1
  },
  "storageLayout": {
    "storage": [
      {
        "astId": 9014,
        "contract": "src/RewardPool.sol:RewardPool",
        "label": "_initialized",
        "offset": 0,
        "slot": "0",
        "type": "t_uint8"
      },
      {
        "astId": 9017,
        "contract": "src/RewardPool.sol:RewardPool",
        "label": "_initializing",
        "offset": 1,
        "slot": "0",
        "type": "t_bool"
      },
      {
        "astId": 8996,
        "contract": "src/RewardPool.sol:RewardPool",
        "label": "__gap",
        "offset": 0,
        "slot": "1",
        "type": "t_array(t_uint256)50_storage"
      },
      {
        "astId": 9311,
        "contract": "src/RewardPool.sol:RewardPool",
        "label": "__gap",
        "offset": 0,
        "slot": "51",
        "type": "t_array(t_uint256)50_storage"
      },
      {
        "astId": 9453,
        "contract": "src/RewardPool.sol:RewardPool",
        "label": "_status",
        "offset": 0,
        "slot": "101",
        "type": "t_uint256"
      },
      {
        "astId": 9522,
        "contract": "src/RewardPool.sol:RewardPool",
        "label": "__gap",
        "offset": 0,
        "slot": "102",
        "type": "t_array(t_uint256)49_storage"
      },
      {
        "astId": 9894,
        "contract": "src/RewardPool.sol:RewardPool",
        "label": "__gap",
        "offset": 0,
        "slot": "151",
        "type": "t_array(t_uint256)50_storage"
      },
      {
        "astId": 10277,
        "contract": "src/RewardPool.sol:RewardPool",
        "label": "__gap",
        "offset": 0,
        "slot": "201",
        "type": "t_array(t_uint256)50_storage"
      },
      {
        "astId": 8248,
        "contract": "src/RewardPool.sol:RewardPool",
        "label": "_roles",
        "offset": 0,
        "slot": "251",
        "type": "t_mapping(t_bytes32,t_struct(RoleData)8243_storage)"
      },
      {
        "astId": 8543,
        "contract": "src/RewardPool.sol:RewardPool",
        "label": "__gap",
        "offset": 0,
        "slot": "252",
        "type": "t_array(t_uint256)49_storage"
      },
      {
        "astId": 8097,
        "contract": "src/RewardPool.sol:RewardPool",
        "label": "_roleMembers",
        "offset": 0,
        "slot": "301",
        "type": "t_mapping(t_bytes32,t_struct(AddressSet)11587_storage)"
      },
      {
        "astId": 8207,
        "contract": "src/RewardPool.sol:RewardPool",
        "label": "__gap",
        "offset": 0,
        "slot": "302",
        "type": "t_array(t_uint256)49_storage"
      },
      {
        "astId": 9333,
        "contract": "src/RewardPool.sol:RewardPool",
        "label": "_paused",
        "offset": 0,
        "slot": "351",
        "type": "t_bool"
      },
      {
        "astId": 9438,
        "contract": "src/RewardPool.sol:RewardPool",
        "label": "__gap",
        "offset": 0,
        "slot": "352",
        "type": "t_array(t_uint256)49_storage"
      },
      {
        "astId": 17478,
        "contract": "src/RewardPool.sol:RewardPool",
        "label": "token",
        "offset": 0,
        "slot": "401",
        "type": "t_contract(IWeatherXM)19417"
      },
      {
        "astId": 17482,
        "contract": "src/RewardPool.sol:RewardPool",
        "label": "claims",
        "offset": 0,
        "slot": "402",
        "type": "t_mapping(t_address,t_uint256)"
      },
      {
        "astId": 17486,
        "contract": "src/RewardPool.sol:RewardPool",
        "label": "roots",
        "offset": 0,
        "slot": "403",
        "type": "t_mapping(t_uint256,t_bytes32)"
      },
      {
        "astId": 17488,
        "contract": "src/RewardPool.sol:RewardPool",
        "label": "cycle",
        "offset": 0,
        "slot": "404",
        "type": "t_uint256"
      },
      {
        "astId": 17490,
        "contract": "src/RewardPool.sol:RewardPool",
        "label": "lastRewardRootTs",
        "offset": 0,
        "slot": "405",
        "type": "t_uint256"
      },
      {
        "astId": 17492,
        "contract": "src/RewardPool.sol:RewardPool",
        "label": "claimedRewards",
        "offset": 0,
        "slot": "406",
        "type": "t_uint256"
      }
    ],
    "types": {
      "t_address": {
        "encoding": "inplace",
        "label": "address",
        "numberOfBytes": "20"
      },
      "t_array(t_bytes32)dyn_storage": {
        "base": "t_bytes32",
        "encoding": "dynamic_array",
        "label": "bytes32[]",
        "numberOfBytes": "32"
      },
      "t_array(t_uint256)49_storage": {
        "base": "t_uint256",
        "encoding": "inplace",
        "label": "uint256[49]",
        "numberOfBytes": "1568"
      },
      "t_array(t_uint256)50_storage": {
        "base": "t_uint256",
        "encoding": "inplace",
        "label": "uint256[50]",
        "numberOfBytes": "1600"
      },
      "t_bool": {
        "encoding": "inplace",
        "label": "bool",
        "numberOfBytes": "1"
      },
      "t_bytes32": {
        "encoding": "inplace",
        "label": "bytes32",
        "numberOfBytes": "32"
      },
      "t_contract(IWeatherXM)19417": {
        "encoding": "inplace",
        "label": "contract IWeatherXM",
        "numberOfBytes": "20"
      },
      "t_mapping(t_address,t_bool)": {
        "encoding": "mapping",
        "key": "t_address",
        "label": "mapping(address => bool)",
        "numberOfBytes": "32",
        "value": "t_bool"
      },
      "t_mapping(t_address,t_uint256)": {
        "encoding": "mapping",
        "key": "t_address",
        "label": "mapping(address => uint256)",
        "numberOfBytes": "32",
        "value": "t_uint256"
      },
      "t_mapping(t_bytes32,t_struct(AddressSet)11587_storage)": {
        "encoding": "mapping",
        "key": "t_bytes32",
        "label": "mapping(bytes32 => struct EnumerableSetUpgradeable.AddressSet)",
        "numberOfBytes": "32",
        "value": "t_struct(AddressSet)11587_storage"
      },
      "t_mapping(t_bytes32,t_struct(RoleData)8243_storage)": {
        "encoding": "mapping",
        "key": "t_bytes32",
        "label": "mapping(bytes32 => struct AccessControlUpgradeable.RoleData)",
        "numberOfBytes": "32",
        "value": "t_struct(RoleData)8243_storage"
      },
      "t_mapping(t_bytes32,t_uint256)": {
        "encoding": "mapping",
        "key": "t_bytes32",
        "label": "mapping(bytes32 => uint256)",
        "numberOfBytes": "32",
        "value": "t_uint256"
      },
      "t_mapping(t_uint256,t_bytes32)": {
        "encoding": "mapping",
        "key": "t_uint256",
        "label": "mapping(uint256 => bytes32)",
        "numberOfBytes": "32",
        "value": "t_bytes32"
      },
      "t_struct(AddressSet)11587_storage": {
        "encoding": "inplace",
        "label": "struct EnumerableSetUpgradeable.AddressSet",
        "members": [
          {
            "astId": 11586,
            "contract": "src/RewardPool.sol:RewardPool",
            "label": "_inner",
            "offset": 0,
            "slot": "0",
            "type": "t_struct(Set)11272_storage"
          }
        ],
        "numberOfBytes": "64"
      },
      "t_struct(RoleData)8243_storage": {
        "encoding": "inplace",
        "label": "struct AccessControlUpgradeable.RoleData",
        "members": [
          {
            "astId": 8240,
            "contract": "src/RewardPool.sol:RewardPool",
            "label": "members",
            "offset": 0,
            "slot": "0",
            "type": "t_mapping(t_address,t_bool)"
          },
          {
            "astId": 8242,
            "contract": "src/RewardPool.sol:RewardPool",
            "label": "adminRole",
            "offset": 0,
            "slot": "1",
            "type": "t_bytes32"
          }
        ],
        "numberOfBytes": "64"
      },
      "t_struct(Set)11272_storage": {
        "encoding": "inplace",
        "label": "struct EnumerableSetUpgradeable.Set",
        "members": [
          {
            "astId": 11267,
            "contract": "src/RewardPool.sol:RewardPool",
            "label": "_values",
            "offset": 0,
            "slot": "0",
            "type": "t_array(t_bytes32)dyn_storage"
          },
          {
            "astId": 11271,
            "contract": "src/RewardPool.sol:RewardPool",
            "label": "_indexes",
            "offset": 0,
            "slot": "1",
            "type": "t_mapping(t_bytes32,t_uint256)"
          }
        ],
        "numberOfBytes": "64"
      },
      "t_uint256": {
        "encoding": "inplace",
        "label": "uint256",
        "numberOfBytes": "32"
      },
      "t_uint8": {
        "encoding": "inplace",
        "label": "uint8",
        "numberOfBytes": "1"
      }
    }
  }
}