{
  "address": "0xda90FD0F407A77bA61aabbfd23CEf47fF41c700e",
  "abi": [
    {
      "inputs": [],
      "stateMutability": "nonpayable",
      "type": "constructor"
    },
    {
      "inputs": [],
      "name": "AmountRequestedIsZero",
      "type": "error"
    },
    {
      "inputs": [],
      "name": "BellowMOQ",
      "type": "error"
    },
    {
      "inputs": [],
      "name": "InvalidServiceId",
      "type": "error"
    },
    {
      "inputs": [],
      "name": "ServiceIdAlreadyExists",
      "type": "error"
    },
    {
      "anonymous": false,
      "inputs": [
        {
          "indexed": false,
          "internalType": "string",
          "name": "service",
          "type": "string"
        }
      ],
      "name": "AddedService",
      "type": "event"
    },
    {
      "anonymous": false,
      "inputs": [
        {
          "indexed": false,
          "internalType": "address",
          "name": "previousAdmin",
          "type": "address"
        },
        {
          "indexed": false,
          "internalType": "address",
          "name": "newAdmin",
          "type": "address"
        }
      ],
      "name": "AdminChanged",
      "type": "event"
    },
    {
      "anonymous": false,
      "inputs": [
        {
          "indexed": true,
          "internalType": "address",
          "name": "beacon",
          "type": "address"
        }
      ],
      "name": "BeaconUpgraded",
      "type": "event"
    },
    {
      "anonymous": false,
      "inputs": [
        {
          "indexed": false,
          "internalType": "string",
          "name": "service",
          "type": "string"
        },
        {
          "indexed": false,
          "internalType": "uint256",
          "name": "index",
          "type": "uint256"
        }
      ],
      "name": "DeletedService",
      "type": "event"
    },
    {
      "anonymous": false,
      "inputs": [
        {
          "indexed": false,
          "internalType": "uint8",
          "name": "version",
          "type": "uint8"
        }
      ],
      "name": "Initialized",
      "type": "event"
    },
    {
      "anonymous": false,
      "inputs": [
        {
          "indexed": false,
          "internalType": "address",
          "name": "account",
          "type": "address"
        }
      ],
      "name": "Paused",
      "type": "event"
    },
    {
      "anonymous": false,
      "inputs": [
        {
          "indexed": false,
          "internalType": "address",
          "name": "from",
          "type": "address"
        },
        {
          "indexed": false,
          "internalType": "uint256",
          "name": "amount",
          "type": "uint256"
        },
        {
          "indexed": false,
          "internalType": "string",
          "name": "service",
          "type": "string"
        },
        {
          "indexed": false,
          "internalType": "uint256",
          "name": "duration",
          "type": "uint256"
        },
        {
          "indexed": false,
          "internalType": "address",
          "name": "paymentToken",
          "type": "address"
        }
      ],
      "name": "PurchasedService",
      "type": "event"
    },
    {
      "anonymous": false,
      "inputs": [
        {
          "indexed": true,
          "internalType": "bytes32",
          "name": "role",
          "type": "bytes32"
        },
        {
          "indexed": true,
          "internalType": "bytes32",
          "name": "previousAdminRole",
          "type": "bytes32"
        },
        {
          "indexed": true,
          "internalType": "bytes32",
          "name": "newAdminRole",
          "type": "bytes32"
        }
      ],
      "name": "RoleAdminChanged",
      "type": "event"
    },
    {
      "anonymous": false,
      "inputs": [
        {
          "indexed": true,
          "internalType": "bytes32",
          "name": "role",
          "type": "bytes32"
        },
        {
          "indexed": true,
          "internalType": "address",
          "name": "account",
          "type": "address"
        },
        {
          "indexed": true,
          "internalType": "address",
          "name": "sender",
          "type": "address"
        }
      ],
      "name": "RoleGranted",
      "type": "event"
    },
    {
      "anonymous": false,
      "inputs": [
        {
          "indexed": true,
          "internalType": "bytes32",
          "name": "role",
          "type": "bytes32"
        },
        {
          "indexed": true,
          "internalType": "address",
          "name": "account",
          "type": "address"
        },
        {
          "indexed": true,
          "internalType": "address",
          "name": "sender",
          "type": "address"
        }
      ],
      "name": "RoleRevoked",
      "type": "event"
    },
    {
      "anonymous": false,
      "inputs": [
        {
          "indexed": false,
          "internalType": "address",
          "name": "account",
          "type": "address"
        }
      ],
      "name": "Unpaused",
      "type": "event"
    },
    {
      "anonymous": false,
      "inputs": [
        {
          "indexed": false,
          "internalType": "string",
          "name": "service",
          "type": "string"
        },
        {
          "indexed": false,
          "internalType": "uint256",
          "name": "index",
          "type": "uint256"
        },
        {
          "indexed": false,
          "internalType": "string",
          "name": "name",
          "type": "string"
        },
        {
          "indexed": false,
          "internalType": "uint256",
          "name": "vpu",
          "type": "uint256"
        }
      ],
      "name": "UpdatedService",
      "type": "event"
    },
    {
      "anonymous": false,
      "inputs": [
        {
          "indexed": true,
          "internalType": "address",
          "name": "implementation",
          "type": "address"
        }
      ],
      "name": "Upgraded",
      "type": "event"
    },
    {
      "inputs": [],
      "name": "DEFAULT_ADMIN_ROLE",
      "outputs": [
        {
          "internalType": "bytes32",
          "name": "",
          "type": "bytes32"
        }
      ],
      "stateMutability": "view",
      "type": "function"
    },
    {
      "inputs": [],
      "name": "SERVICE_MANAGER_ROLE",
      "outputs": [
        {
          "internalType": "bytes32",
          "name": "",
          "type": "bytes32"
        }
      ],
      "stateMutability": "view",
      "type": "function"
    },
    {
      "inputs": [],
      "name": "UPGRADER_ROLE",
      "outputs": [
        {
          "internalType": "bytes32",
          "name": "",
          "type": "bytes32"
        }
      ],
      "stateMutability": "view",
      "type": "function"
    },
    {
      "inputs": [
        {
          "internalType": "string",
          "name": "_serviceId",
          "type": "string"
        },
        {
          "internalType": "string",
          "name": "_name",
          "type": "string"
        },
        {
          "internalType": "uint256",
          "name": "_moq",
          "type": "uint256"
        },
        {
          "internalType": "uint256",
          "name": "_vpu",
          "type": "uint256"
        }
      ],
      "name": "addService",
      "outputs": [
        {
          "internalType": "uint256",
          "name": "index",
          "type": "uint256"
        }
      ],
      "stateMutability": "nonpayable",
      "type": "function"
    },
    {
      "inputs": [],
      "name": "basePaymentToken",
      "outputs": [
        {
          "internalType": "contract IERC20",
          "name": "",
          "type": "address"
        }
      ],
      "stateMutability": "view",
      "type": "function"
    },
    {
      "inputs": [
        {
          "internalType": "string",
          "name": "_serviceId",
          "type": "string"
        }
      ],
      "name": "deleteService",
      "outputs": [
        {
          "internalType": "uint256",
          "name": "index",
          "type": "uint256"
        }
      ],
      "stateMutability": "nonpayable",
      "type": "function"
    },
    {
      "inputs": [
        {
          "internalType": "bytes32",
          "name": "role",
          "type": "bytes32"
        }
      ],
      "name": "getRoleAdmin",
      "outputs": [
        {
          "internalType": "bytes32",
          "name": "",
          "type": "bytes32"
        }
      ],
      "stateMutability": "view",
      "type": "function"
    },
    {
      "inputs": [
        {
          "internalType": "bytes32",
          "name": "role",
          "type": "bytes32"
        },
        {
          "internalType": "uint256",
          "name": "index",
          "type": "uint256"
        }
      ],
      "name": "getRoleMember",
      "outputs": [
        {
          "internalType": "address",
          "name": "",
          "type": "address"
        }
      ],
      "stateMutability": "view",
      "type": "function"
    },
    {
      "inputs": [
        {
          "internalType": "bytes32",
          "name": "role",
          "type": "bytes32"
        }
      ],
      "name": "getRoleMemberCount",
      "outputs": [
        {
          "internalType": "uint256",
          "name": "",
          "type": "uint256"
        }
      ],
      "stateMutability": "view",
      "type": "function"
    },
    {
      "inputs": [
        {
          "internalType": "uint256",
          "name": "_index",
          "type": "uint256"
        }
      ],
      "name": "getServiceAtIndex",
      "outputs": [
        {
          "internalType": "string",
          "name": "serviceId",
          "type": "string"
        }
      ],
      "stateMutability": "view",
      "type": "function"
    },
    {
      "inputs": [
        {
          "internalType": "string",
          "name": "_serviceId",
          "type": "string"
        }
      ],
      "name": "getServiceByID",
      "outputs": [
        {
          "internalType": "uint256",
          "name": "",
          "type": "uint256"
        },
        {
          "internalType": "string",
          "name": "",
          "type": "string"
        },
        {
          "internalType": "uint256",
          "name": "",
          "type": "uint256"
        },
        {
          "internalType": "uint256",
          "name": "",
          "type": "uint256"
        }
      ],
      "stateMutability": "view",
      "type": "function"
    },
    {
      "inputs": [],
      "name": "getServiceCount",
      "outputs": [
        {
          "internalType": "uint256",
          "name": "count",
          "type": "uint256"
        }
      ],
      "stateMutability": "view",
      "type": "function"
    },
    {
      "inputs": [
        {
          "internalType": "bytes32",
          "name": "role",
          "type": "bytes32"
        },
        {
          "internalType": "address",
          "name": "account",
          "type": "address"
        }
      ],
      "name": "grantRole",
      "outputs": [],
      "stateMutability": "nonpayable",
      "type": "function"
    },
    {
      "inputs": [
        {
          "internalType": "bytes32",
          "name": "role",
          "type": "bytes32"
        },
        {
          "internalType": "address",
          "name": "account",
          "type": "address"
        }
      ],
      "name": "hasRole",
      "outputs": [
        {
          "internalType": "bool",
          "name": "",
          "type": "bool"
        }
      ],
      "stateMutability": "view",
      "type": "function"
    },
    {
      "inputs": [
        {
          "internalType": "address",
          "name": "_wxm",
          "type": "address"
        },
        {
          "internalType": "address",
          "name": "_basePaymentToken",
          "type": "address"
        },
        {
          "internalType": "address",
          "name": "_treasury",
          "type": "address"
        }
      ],
      "name": "initialize",
      "outputs": [],
      "stateMutability": "nonpayable",
      "type": "function"
    },
    {
      "inputs": [],
      "name": "pause",
      "outputs": [],
      "stateMutability": "nonpayable",
      "type": "function"
    },
    {
      "inputs": [],
      "name": "paused",
      "outputs": [
        {
          "internalType": "bool",
          "name": "",
          "type": "bool"
        }
      ],
      "stateMutability": "view",
      "type": "function"
    },
    {
      "inputs": [],
      "name": "proxiableUUID",
      "outputs": [
        {
          "internalType": "bytes32",
          "name": "",
          "type": "bytes32"
        }
      ],
      "stateMutability": "view",
      "type": "function"
    },
    {
      "inputs": [
        {
          "internalType": "uint256",
          "name": "duration",
          "type": "uint256"
        },
        {
          "internalType": "string",
          "name": "serviceId",
          "type": "string"
        }
      ],
      "name": "purchaseService",
      "outputs": [],
      "stateMutability": "nonpayable",
      "type": "function"
    },
    {
      "inputs": [
        {
          "internalType": "uint256",
          "name": "amount",
          "type": "uint256"
        },
        {
          "internalType": "uint256",
          "name": "duration",
          "type": "uint256"
        },
        {
          "internalType": "string",
          "name": "serviceId",
          "type": "string"
        }
      ],
      "name": "purchaseService",
      "outputs": [],
      "stateMutability": "nonpayable",
      "type": "function"
    },
    {
      "inputs": [
        {
          "internalType": "bytes32",
          "name": "role",
          "type": "bytes32"
        },
        {
          "internalType": "address",
          "name": "account",
          "type": "address"
        }
      ],
      "name": "renounceRole",
      "outputs": [],
      "stateMutability": "nonpayable",
      "type": "function"
    },
    {
      "inputs": [
        {
          "internalType": "bytes32",
          "name": "role",
          "type": "bytes32"
        },
        {
          "internalType": "address",
          "name": "account",
          "type": "address"
        }
      ],
      "name": "revokeRole",
      "outputs": [],
      "stateMutability": "nonpayable",
      "type": "function"
    },
    {
      "inputs": [
        {
          "internalType": "string",
          "name": "",
          "type": "string"
        }
      ],
      "name": "serviceCatalog",
      "outputs": [
        {
          "internalType": "uint256",
          "name": "index",
          "type": "uint256"
        },
        {
          "internalType": "string",
          "name": "name",
          "type": "string"
        },
        {
          "internalType": "uint256",
          "name": "moq",
          "type": "uint256"
        },
        {
          "internalType": "uint256",
          "name": "vpu",
          "type": "uint256"
        }
      ],
      "stateMutability": "view",
      "type": "function"
    },
    {
      "inputs": [
        {
          "internalType": "uint256",
          "name": "",
          "type": "uint256"
        }
      ],
      "name": "serviceIndex",
      "outputs": [
        {
          "internalType": "string",
          "name": "",
          "type": "string"
        }
      ],
      "stateMutability": "view",
      "type": "function"
    },
    {
      "inputs": [
        {
          "internalType": "address",
          "name": "_basePaymentToken",
          "type": "address"
        }
      ],
      "name": "setBasePaymentToken",
      "outputs": [],
      "stateMutability": "nonpayable",
      "type": "function"
    },
    {
      "inputs": [
        {
          "internalType": "bytes4",
          "name": "interfaceId",
          "type": "bytes4"
        }
      ],
      "name": "supportsInterface",
      "outputs": [
        {
          "internalType": "bool",
          "name": "",
          "type": "bool"
        }
      ],
      "stateMutability": "view",
      "type": "function"
    },
    {
      "inputs": [],
      "name": "treasury",
      "outputs": [
        {
          "internalType": "address",
          "name": "",
          "type": "address"
        }
      ],
      "stateMutability": "view",
      "type": "function"
    },
    {
      "inputs": [],
      "name": "unpause",
      "outputs": [],
      "stateMutability": "nonpayable",
      "type": "function"
    },
    {
      "inputs": [
        {
          "internalType": "string",
          "name": "_serviceId",
          "type": "string"
        },
        {
          "internalType": "uint256",
          "name": "_moq",
          "type": "uint256"
        }
      ],
      "name": "updateServiceMOQ",
      "outputs": [
        {
          "internalType": "bool",
          "name": "success",
          "type": "bool"
        }
      ],
      "stateMutability": "nonpayable",
      "type": "function"
    },
    {
      "inputs": [
        {
          "internalType": "string",
          "name": "_serviceId",
          "type": "string"
        },
        {
          "internalType": "uint256",
          "name": "_vpu",
          "type": "uint256"
        }
      ],
      "name": "updateServiceVPU",
      "outputs": [
        {
          "internalType": "bool",
          "name": "success",
          "type": "bool"
        }
      ],
      "stateMutability": "nonpayable",
      "type": "function"
    },
    {
      "inputs": [
        {
          "internalType": "address",
          "name": "newImplementation",
          "type": "address"
        }
      ],
      "name": "upgradeTo",
      "outputs": [],
      "stateMutability": "nonpayable",
      "type": "function"
    },
    {
      "inputs": [
        {
          "internalType": "address",
          "name": "newImplementation",
          "type": "address"
        },
        {
          "internalType": "bytes",
          "name": "data",
          "type": "bytes"
        }
      ],
      "name": "upgradeToAndCall",
      "outputs": [],
      "stateMutability": "payable",
      "type": "function"
    },
    {
      "inputs": [],
      "name": "wxm",
      "outputs": [
        {
          "internalType": "contract IWeatherXM",
          "name": "",
          "type": "address"
        }
      ],
      "stateMutability": "view",
      "type": "function"
    }
  ],
  "transactionHash": "0xe333a197167089da803a571c033aba4f2d48ce9d61045ad475ce43d677fd8bc0",
  "args": [],
  "numDeployments": 1,
  "solcInputHash": "b88c061c27a19ac14671e8e7b8838a1d",
  "bytecode": "0x60a06040523060805234801562000014575f80fd5b506200001f62000025565b620000e3565b5f54610100900460ff1615620000915760405162461bcd60e51b815260206004820152602760248201527f496e697469616c697a61626c653a20636f6e747261637420697320696e697469604482015266616c697a696e6760c81b606482015260840160405180910390fd5b5f5460ff90811614620000e1575f805460ff191660ff9081179091556040519081527f7f26b83ff96e1f2b6a682f133852f6798a09c465da95921460cefb38474024989060200160405180910390a15b565b608051612e44620001185f395f8181610acc01528181610b0c01528181610d3601528181610d760152610e030152612e445ff3fe6080604052600436106101e6575f3560e01c80637f7b863e11610108578063c6c86f9b1161009d578063ceeb6b6d1161006d578063ceeb6b6d14610570578063d547741f1461058f578063e108f67c146105ae578063f3aaad55146105ce578063f72c0d8b146105ed575f80fd5b8063c6c86f9b146104e6578063c979e8a714610512578063ca15c87314610532578063cbe5307314610551575f80fd5b80639d076683116100d85780639d07668314610466578063a217fddf14610485578063c069ec4c14610498578063c0c53b8b146104c7575f80fd5b80637f7b863e146103f55780638456cb59146104145780639010d07c1461042857806391d1485414610447575f80fd5b80633950fc561161017e5780635c975abb1161014e5780635c975abb146103665780635f75cbb01461037e57806360857d751461039d57806361d027b3146103d5575f80fd5b80633950fc561461030c5780633f4ba83a1461032b5780634f1ef2861461033f57806352d1902d14610352575f80fd5b8063303660e5116101b9578063303660e51461029a57806336568abe146102b95780633659cfe6146102d85780633672404e146102f7575f80fd5b806301ffc9a7146101ea5780631a4c85be1461021e578063248a9ca31461024b5780632f2ff15d14610279575b5f80fd5b3480156101f5575f80fd5b506102096102043660046123ce565b610620565b60405190151581526020015b60405180910390f35b348015610229575f80fd5b5061023d61023836600461249a565b61064a565b604051908152602001610215565b348015610256575f80fd5b5061023d6102653660046124cc565b5f90815260fb602052604090206001015490565b348015610284575f80fd5b506102986102933660046124fe565b610884565b005b3480156102a5575f80fd5b506102986102b4366004612528565b6108ad565b3480156102c4575f80fd5b506102986102d33660046124fe565b610a43565b3480156102e3575f80fd5b506102986102f236600461256c565b610ac2565b348015610302575f80fd5b506101955461023d565b348015610317575f80fd5b5061023d610326366004612585565b610b9f565b348015610336575f80fd5b50610298610d1a565b61029861034d3660046125f4565b610d2c565b34801561035d575f80fd5b5061023d610df7565b348015610371575f80fd5b5061015f5460ff16610209565b348015610389575f80fd5b50610209610398366004612648565b610ea8565b3480156103a8575f80fd5b50610191546103bd906001600160a01b031681565b6040516001600160a01b039091168152602001610215565b3480156103e0575f80fd5b50610193546103bd906001600160a01b031681565b348015610400575f80fd5b5061029861040f36600461268a565b610fb5565b34801561041f575f80fd5b50610298611114565b348015610433575f80fd5b506103bd6104423660046126d6565b611126565b348015610452575f80fd5b506102096104613660046124fe565b611145565b348015610471575f80fd5b50610209610480366004612648565b61116f565b348015610490575f80fd5b5061023d5f81565b3480156104a3575f80fd5b506104b76104b236600461249a565b611269565b6040516102159493929190612743565b3480156104d2575f80fd5b506102986104e136600461276e565b611324565b3480156104f1575f80fd5b506105056105003660046124cc565b6114d5565b60405161021591906127ae565b34801561051d575f80fd5b5061023d5f80516020612da883398151915281565b34801561053d575f80fd5b5061023d61054c3660046124cc565b61157c565b34801561055c575f80fd5b5061029861056b36600461256c565b611593565b34801561057b575f80fd5b5061050561058a3660046124cc565b6115ce565b34801561059a575f80fd5b506102986105a93660046124fe565b61167a565b3480156105b9575f80fd5b50610192546103bd906001600160a01b031681565b3480156105d9575f80fd5b506104b76105e836600461249a565b61169e565b3480156105f8575f80fd5b5061023d7f189ab7a9244df0848122154315af71fe140f3db0fe014031783b0946b8c9d2e381565b5f6001600160e01b03198216635a05180f60e01b14806106445750610644826117c4565b92915050565b5f5f80516020612da8833981519152610662816117f8565b8261066c81611802565b61068957604051635622fbe760e11b815260040160405180910390fd5b5f6101948560405161069b91906127c0565b908152604051908190036020019020546101958054919250906106c0906001906127ef565b815481106106d0576106d0612802565b905f5260205f200161019582815481106106ec576106ec612802565b905f5260205f20019081610700919061289b565b5080610194610195838154811061071957610719612802565b905f5260205f200160405161072e9190612976565b90815260405190819003602001902055610195805480610750576107506129e8565b600190038181905f5260205f20015f6107699190612384565b90557fda30d5954ae0f1d66147aa1418ecdd13b78020496cf4b88946825536abbb2409858260405161079c9291906129fc565b60405180910390a1610195541561087c577f0aa74cda6f5b7fd786730e92e329fb1e65475eb67f8f0f25a612e8f8fdb96dbc61019582815481106107e2576107e2612802565b905f5260205f200182610194610195858154811061080257610802612802565b905f5260205f20016040516108179190612976565b9081526020016040518091039020600101610194610195868154811061083f5761083f612802565b905f5260205f20016040516108549190612976565b9081526040519081900360200181206003015461087394939291612a96565b60405180910390a15b949350505050565b5f82815260fb602052604090206001015461089e816117f8565b6108a883836118a6565b505050565b6108b56118c8565b6108bd611911565b806108c781611802565b6108e457604051635622fbe760e11b815260040160405180910390fd5b610194826040516108f591906127c0565b908152602001604051809103902060020154831015610927576040516361a10bbb60e11b815260040160405180910390fd5b5f6101948360405161093991906127c0565b908152602001604051809103902060030154846109569190612ad2565b610192549091506001600160a01b03166323b872dd336101935460405160e084901b6001600160e01b03191681526001600160a01b03928316600482015291166024820152604481018490526064016020604051808303815f875af11580156109c1573d5f803e3d5ffd5b505050506040513d601f19601f820116820180604052508101906109e59190612ae9565b507f39654614ebb20323e1d4879f9090606f5598bed8c8e82035ab6084fff0c8ce8e3361019254604051610a2b9291859188918a916001600160a01b0390911690612b08565b60405180910390a15050610a3f6001606555565b5050565b6001600160a01b0381163314610ab85760405162461bcd60e51b815260206004820152602f60248201527f416363657373436f6e74726f6c3a2063616e206f6e6c792072656e6f756e636560448201526e103937b632b9903337b91039b2b63360891b60648201526084015b60405180910390fd5b610a3f8282611971565b6001600160a01b037f0000000000000000000000000000000000000000000000000000000000000000163003610b0a5760405162461bcd60e51b8152600401610aaf90612b49565b7f00000000000000000000000000000000000000000000000000000000000000006001600160a01b0316610b525f80516020612dc8833981519152546001600160a01b031690565b6001600160a01b031614610b785760405162461bcd60e51b8152600401610aaf90612b95565b610b8181611993565b604080515f80825260208201909252610b9c918391906119bd565b50565b5f5f80516020612da8833981519152610bb7816117f8565b610bc086611802565b15610bde57604051632741f8bd60e11b815260040160405180910390fd5b61019580546001810182555f919091527f54034dca961b61bc2a3147cc0c1986762915b42723ed64155364f17a2e29677001610c1a8782612be1565b508461019487604051610c2d91906127c0565b90815260200160405180910390206001019081610c4a9190612be1565b508361019487604051610c5d91906127c0565b9081526020016040518091039020600201819055508261019487604051610c8491906127c0565b9081526040519081900360200190206003015561019554610ca7906001906127ef565b61019487604051610cb891906127c0565b908152604051908190036020018120919091557fc85cc1e4ac04562a6ed48d679be0ef41e83134a9cf217bf9b524867573a0f5e890610cf89088906127ae565b60405180910390a161019554610d10906001906127ef565b9695505050505050565b5f610d24816117f8565b610b9c611b27565b6001600160a01b037f0000000000000000000000000000000000000000000000000000000000000000163003610d745760405162461bcd60e51b8152600401610aaf90612b49565b7f00000000000000000000000000000000000000000000000000000000000000006001600160a01b0316610dbc5f80516020612dc8833981519152546001600160a01b031690565b6001600160a01b031614610de25760405162461bcd60e51b8152600401610aaf90612b95565b610deb82611993565b610a3f828260016119bd565b5f306001600160a01b037f00000000000000000000000000000000000000000000000000000000000000001614610e965760405162461bcd60e51b815260206004820152603860248201527f555550535570677261646561626c653a206d757374206e6f742062652063616c60448201527f6c6564207468726f7567682064656c656761746563616c6c00000000000000006064820152608401610aaf565b505f80516020612dc883398151915290565b5f5f80516020612da8833981519152610ec0816117f8565b83610eca81611802565b610ee757604051635622fbe760e11b815260040160405180910390fd5b8361019486604051610ef991906127c0565b9081526020016040518091039020600301819055507f0aa74cda6f5b7fd786730e92e329fb1e65475eb67f8f0f25a612e8f8fdb96dbc8561019487604051610f4191906127c0565b908152604051908190036020018120549061019490610f61908a906127c0565b908152602001604051809103902060010161019489604051610f8391906127c0565b90815260405190819003602001812060030154610fa294939291612c97565b60405180910390a1506001949350505050565b610fbd6118c8565b610fc5611911565b80610fcf81611802565b610fec57604051635622fbe760e11b815260040160405180910390fd5b61019482604051610ffd91906127c0565b90815260200160405180910390206002015483101561102f576040516361a10bbb60e11b815260040160405180910390fd5b610191546001600160a01b03166323b872dd336101935460405160e084901b6001600160e01b03191681526001600160a01b03928316600482015291166024820152604481018790526064016020604051808303815f875af1158015611097573d5f803e3d5ffd5b505050506040513d601f19601f820116820180604052508101906110bb9190612ae9565b507f39654614ebb20323e1d4879f9090606f5598bed8c8e82035ab6084fff0c8ce8e336101915460405161110192918891879189916001600160a01b0390911690612b08565b60405180910390a1506108a86001606555565b5f61111e816117f8565b610b9c611b7a565b5f82815261012d6020526040812061113e9083611bb8565b9392505050565b5f91825260fb602090815260408084206001600160a01b0393909316845291905290205460ff1690565b5f5f80516020612da8833981519152611187816117f8565b8361119181611802565b6111ae57604051635622fbe760e11b815260040160405180910390fd5b83610194866040516111c091906127c0565b9081526020016040518091039020600201819055507f0aa74cda6f5b7fd786730e92e329fb1e65475eb67f8f0f25a612e8f8fdb96dbc856101948760405161120891906127c0565b908152604051908190036020018120549061019490611228908a906127c0565b90815260200160405180910390206001016101948960405161124a91906127c0565b90815260405190819003602001812060020154610fa294939291612c97565b8051602081830181018051610194825292820191909301209152805460018201805491929161129790612816565b80601f01602080910402602001604051908101604052809291908181526020018280546112c390612816565b801561130e5780601f106112e55761010080835404028352916020019161130e565b820191905f5260205f20905b8154815290600101906020018083116112f157829003601f168201915b5050505050908060020154908060030154905084565b5f54610100900460ff161580801561134257505f54600160ff909116105b8061135b5750303b15801561135b57505f5460ff166001145b6113be5760405162461bcd60e51b815260206004820152602e60248201527f496e697469616c697a61626c653a20636f6e747261637420697320616c72656160448201526d191e481a5b9a5d1a585b1a5e995960921b6064820152608401610aaf565b5f805460ff1916600117905580156113df575f805461ff0019166101001790555b6113e7611bc3565b6113ef611bc3565b6113f7611be9565b6113ff611c17565b6114095f33611c45565b6114337f189ab7a9244df0848122154315af71fe140f3db0fe014031783b0946b8c9d2e333611c45565b61144a5f80516020612da883398151915233611c45565b61019180546001600160a01b038087166001600160a01b031992831617909255610192805486841690831617905561019380549285169290911691909117905580156114cf575f805461ff0019169055604051600181527f7f26b83ff96e1f2b6a682f133852f6798a09c465da95921460cefb38474024989060200160405180910390a15b50505050565b61019581815481106114e5575f80fd5b905f5260205f20015f9150905080546114fd90612816565b80601f016020809104026020016040519081016040528092919081815260200182805461152990612816565b80156115745780601f1061154b57610100808354040283529160200191611574565b820191905f5260205f20905b81548152906001019060200180831161155757829003601f168201915b505050505081565b5f81815261012d6020526040812061064490611c4f565b5f80516020612da88339815191526115aa816117f8565b5061019280546001600160a01b0319166001600160a01b0392909216919091179055565b606061019582815481106115e4576115e4612802565b905f5260205f200180546115f790612816565b80601f016020809104026020016040519081016040528092919081815260200182805461162390612816565b801561166e5780601f106116455761010080835404028352916020019161166e565b820191905f5260205f20905b81548152906001019060200180831161165157829003601f168201915b50505050509050919050565b5f82815260fb6020526040902060010154611694816117f8565b6108a88383611971565b5f60605f80610194856040516116b491906127c0565b9081526040519081900360200181205490610194906116d49088906127c0565b9081526020016040518091039020600101610194876040516116f691906127c0565b9081526020016040518091039020600201546101948860405161171991906127c0565b90815260200160405180910390206003015482805461173790612816565b80601f016020809104026020016040519081016040528092919081815260200182805461176390612816565b80156117ae5780601f10611785576101008083540402835291602001916117ae565b820191905f5260205f20905b81548152906001019060200180831161179157829003601f168201915b5050505050925093509350935093509193509193565b5f6001600160e01b03198216637965db0b60e01b148061064457506301ffc9a760e01b6001600160e01b0319831614610644565b610b9c8133611c58565b610195545f90810361181557505f919050565b8160405160200161182691906127c0565b604051602081830303815290604052805190602001206101956101948460405161185091906127c0565b908152604051908190036020019020548154811061187057611870612802565b905f5260205f20016040516020016118889190612976565b60405160208183030381529060405280519060200120149050919050565b6118b08282611cb1565b5f82815261012d602052604090206108a89082611d36565b61015f5460ff161561190f5760405162461bcd60e51b815260206004820152601060248201526f14185d5cd8589b194e881c185d5cd95960821b6044820152606401610aaf565b565b6002606554036119635760405162461bcd60e51b815260206004820152601f60248201527f5265656e7472616e637947756172643a207265656e7472616e742063616c6c006044820152606401610aaf565b6002606555565b6001606555565b61197b8282611d4a565b5f82815261012d602052604090206108a89082611db0565b7f189ab7a9244df0848122154315af71fe140f3db0fe014031783b0946b8c9d2e3610a3f816117f8565b7f4910fdfa16fed3260ed0e7147f7cc6da11a60208b5b9406d12a635614ffd91435460ff16156119f0576108a883611dc4565b826001600160a01b03166352d1902d6040518163ffffffff1660e01b8152600401602060405180830381865afa925050508015611a4a575060408051601f3d908101601f19168201909252611a4791810190612ca9565b60015b611aad5760405162461bcd60e51b815260206004820152602e60248201527f45524331393637557067726164653a206e657720696d706c656d656e7461746960448201526d6f6e206973206e6f74205555505360901b6064820152608401610aaf565b5f80516020612dc88339815191528114611b1b5760405162461bcd60e51b815260206004820152602960248201527f45524331393637557067726164653a20756e737570706f727465642070726f786044820152681a58589b195555525160ba1b6064820152608401610aaf565b506108a8838383611e5f565b611b2f611e83565b61015f805460ff191690557f5db9ee0a495bf2e6ff9c91a7834c1ba4fdd244a5e8aa4e537bd38aeae4b073aa335b6040516001600160a01b03909116815260200160405180910390a1565b611b826118c8565b61015f805460ff191660011790557f62e78cea01bee320cd4e420270b5ea74000d11b0c9f74754ebdbfc544b05a258611b5d3390565b5f61113e8383611ecd565b5f54610100900460ff1661190f5760405162461bcd60e51b8152600401610aaf90612cc0565b5f54610100900460ff16611c0f5760405162461bcd60e51b8152600401610aaf90612cc0565b61190f611ef3565b5f54610100900460ff16611c3d5760405162461bcd60e51b8152600401610aaf90612cc0565b61190f611f26565b610a3f82826118a6565b5f610644825490565b611c628282611145565b610a3f57611c6f81611f4c565b611c7a836020611f5e565b604051602001611c8b929190612d0b565b60408051601f198184030181529082905262461bcd60e51b8252610aaf916004016127ae565b611cbb8282611145565b610a3f575f82815260fb602090815260408083206001600160a01b03851684529091529020805460ff19166001179055611cf23390565b6001600160a01b0316816001600160a01b0316837f2f8788117e7eff1d82e926ec794901d17c78024a50270940304540a733656f0d60405160405180910390a45050565b5f61113e836001600160a01b0384166120f4565b611d548282611145565b15610a3f575f82815260fb602090815260408083206001600160a01b0385168085529252808320805460ff1916905551339285917ff6391f5c32d9c69d2a47ea670b442974b53935d1edc7fd64eb21e047a839171b9190a45050565b5f61113e836001600160a01b038416612140565b6001600160a01b0381163b611e315760405162461bcd60e51b815260206004820152602d60248201527f455243313936373a206e657720696d706c656d656e746174696f6e206973206e60448201526c1bdd08184818dbdb9d1c9858dd609a1b6064820152608401610aaf565b5f80516020612dc883398151915280546001600160a01b0319166001600160a01b0392909216919091179055565b611e6883612223565b5f82511180611e745750805b156108a8576114cf8383612262565b61015f5460ff1661190f5760405162461bcd60e51b815260206004820152601460248201527314185d5cd8589b194e881b9bdd081c185d5cd95960621b6044820152606401610aaf565b5f825f018281548110611ee257611ee2612802565b905f5260205f200154905092915050565b5f54610100900460ff16611f195760405162461bcd60e51b8152600401610aaf90612cc0565b61015f805460ff19169055565b5f54610100900460ff1661196a5760405162461bcd60e51b8152600401610aaf90612cc0565b60606106446001600160a01b03831660145b60605f611f6c836002612ad2565b611f77906002612d7f565b67ffffffffffffffff811115611f8f57611f8f6123f5565b6040519080825280601f01601f191660200182016040528015611fb9576020820181803683370190505b509050600360fc1b815f81518110611fd357611fd3612802565b60200101906001600160f81b03191690815f1a905350600f60fb1b8160018151811061200157612001612802565b60200101906001600160f81b03191690815f1a9053505f612023846002612ad2565b61202e906001612d7f565b90505b60018111156120a5576f181899199a1a9b1b9c1cb0b131b232b360811b85600f166010811061206257612062612802565b1a60f81b82828151811061207857612078612802565b60200101906001600160f81b03191690815f1a90535060049490941c9361209e81612d92565b9050612031565b50831561113e5760405162461bcd60e51b815260206004820181905260248201527f537472696e67733a20686578206c656e67746820696e73756666696369656e746044820152606401610aaf565b5f81815260018301602052604081205461213957508154600181810184555f848152602080822090930184905584548482528286019093526040902091909155610644565b505f610644565b5f818152600183016020526040812054801561221a575f6121626001836127ef565b85549091505f90612175906001906127ef565b90508181146121d4575f865f01828154811061219357612193612802565b905f5260205f200154905080875f0184815481106121b3576121b3612802565b5f918252602080832090910192909255918252600188019052604090208390555b85548690806121e5576121e56129e8565b600190038181905f5260205f20015f90559055856001015f8681526020019081526020015f205f905560019350505050610644565b5f915050610644565b61222c81611dc4565b6040516001600160a01b038216907fbc7cd75a20ee27fd9adebab32041f755214dbc6bffa90cc0225b39da2e5c2d3b905f90a250565b606061113e8383604051806060016040528060278152602001612de86027913960605f80856001600160a01b03168560405161229e91906127c0565b5f60405180830381855af49150503d805f81146122d6576040519150601f19603f3d011682016040523d82523d5f602084013e6122db565b606091505b5091509150610d1086838387606083156123555782515f0361234e576001600160a01b0385163b61234e5760405162461bcd60e51b815260206004820152601d60248201527f416464726573733a2063616c6c20746f206e6f6e2d636f6e74726163740000006044820152606401610aaf565b508161087c565b61087c838381511561236a5781518083602001fd5b8060405162461bcd60e51b8152600401610aaf91906127ae565b50805461239090612816565b5f825580601f1061239f575050565b601f0160209004905f5260205f2090810190610b9c91905b808211156123ca575f81556001016123b7565b5090565b5f602082840312156123de575f80fd5b81356001600160e01b03198116811461113e575f80fd5b634e487b7160e01b5f52604160045260245ffd5b5f67ffffffffffffffff80841115612423576124236123f5565b604051601f8501601f19908116603f0116810190828211818310171561244b5761244b6123f5565b81604052809350858152868686011115612463575f80fd5b858560208301375f602087830101525050509392505050565b5f82601f83011261248b575f80fd5b61113e83833560208501612409565b5f602082840312156124aa575f80fd5b813567ffffffffffffffff8111156124c0575f80fd5b61087c8482850161247c565b5f602082840312156124dc575f80fd5b5035919050565b80356001600160a01b03811681146124f9575f80fd5b919050565b5f806040838503121561250f575f80fd5b8235915061251f602084016124e3565b90509250929050565b5f8060408385031215612539575f80fd5b82359150602083013567ffffffffffffffff811115612556575f80fd5b6125628582860161247c565b9150509250929050565b5f6020828403121561257c575f80fd5b61113e826124e3565b5f805f8060808587031215612598575f80fd5b843567ffffffffffffffff808211156125af575f80fd5b6125bb8883890161247c565b955060208701359150808211156125d0575f80fd5b506125dd8782880161247c565b949794965050505060408301359260600135919050565b5f8060408385031215612605575f80fd5b61260e836124e3565b9150602083013567ffffffffffffffff811115612629575f80fd5b8301601f81018513612639575f80fd5b61256285823560208401612409565b5f8060408385031215612659575f80fd5b823567ffffffffffffffff81111561266f575f80fd5b61267b8582860161247c565b95602094909401359450505050565b5f805f6060848603121561269c575f80fd5b8335925060208401359150604084013567ffffffffffffffff8111156126c0575f80fd5b6126cc8682870161247c565b9150509250925092565b5f80604083850312156126e7575f80fd5b50508035926020909101359150565b5f5b838110156127105781810151838201526020016126f8565b50505f910152565b5f815180845261272f8160208601602086016126f6565b601f01601f19169290920160200192915050565b848152608060208201525f61275b6080830186612718565b6040830194909452506060015292915050565b5f805f60608486031215612780575f80fd5b612789846124e3565b9250612797602085016124e3565b91506127a5604085016124e3565b90509250925092565b602081525f61113e6020830184612718565b5f82516127d18184602087016126f6565b9190910192915050565b634e487b7160e01b5f52601160045260245ffd5b81810381811115610644576106446127db565b634e487b7160e01b5f52603260045260245ffd5b600181811c9082168061282a57607f821691505b60208210810361284857634e487b7160e01b5f52602260045260245ffd5b50919050565b601f8211156108a8575f81815260208120601f850160051c810160208610156128745750805b601f850160051c820191505b8181101561289357828155600101612880565b505050505050565b8181036128a6575050565b6128b08254612816565b67ffffffffffffffff8111156128c8576128c86123f5565b6128dc816128d68454612816565b8461284e565b5f601f82116001811461290d575f83156128f65750848201545b5f19600385901b1c1916600184901b17845561296f565b5f85815260209020601f198416905f86815260209020845b838110156129455782860154825560019586019590910190602001612925565b508583101561296257818501545f19600388901b60f8161c191681555b50505060018360011b0184555b5050505050565b5f80835461298381612816565b6001828116801561299b57600181146129b0576129dc565b60ff19841687528215158302870194506129dc565b875f526020805f205f5b858110156129d35781548a8201529084019082016129ba565b50505082870194505b50929695505050505050565b634e487b7160e01b5f52603160045260245ffd5b604081525f612a0e6040830185612718565b90508260208301529392505050565b5f8154612a2981612816565b808552602060018381168015612a465760018114612a6057612a8b565b60ff1985168884015283151560051b880183019550612a8b565b865f52825f205f5b85811015612a835781548a8201860152908301908401612a68565b890184019650505b505050505092915050565b608081525f612aa86080830187612a1d565b8560208401528281036040840152612ac08186612a1d565b91505082606083015295945050505050565b8082028115828204841417610644576106446127db565b5f60208284031215612af9575f80fd5b8151801515811461113e575f80fd5b5f60018060a01b03808816835286602084015260a06040840152612b2f60a0840187612718565b606084019590955292909216608090910152509392505050565b6020808252602c908201527f46756e6374696f6e206d7573742062652063616c6c6564207468726f7567682060408201526b19195b1959d85d1958d85b1b60a21b606082015260800190565b6020808252602c908201527f46756e6374696f6e206d7573742062652063616c6c6564207468726f7567682060408201526b6163746976652070726f787960a01b606082015260800190565b815167ffffffffffffffff811115612bfb57612bfb6123f5565b612c09816128d68454612816565b602080601f831160018114612c3c575f8415612c255750858301515b5f19600386901b1c1916600185901b178555612893565b5f85815260208120601f198616915b82811015612c6a57888601518255948401946001909101908401612c4b565b5085821015612c8757878501515f19600388901b60f8161c191681555b5050505050600190811b01905550565b608081525f612aa86080830187612718565b5f60208284031215612cb9575f80fd5b5051919050565b6020808252602b908201527f496e697469616c697a61626c653a20636f6e7472616374206973206e6f74206960408201526a6e697469616c697a696e6760a81b606082015260800190565b7f416363657373436f6e74726f6c3a206163636f756e742000000000000000000081525f8351612d428160178501602088016126f6565b7001034b99036b4b9b9b4b733903937b6329607d1b6017918401918201528351612d738160288401602088016126f6565b01602801949350505050565b80820180821115610644576106446127db565b5f81612da057612da06127db565b505f19019056fe09717ac20005278352439ebfe1b489a0fa1eccb8e4f93830ef8886bb58ec7bc5360894a13ba1a3210667c828492db98dca3e2076cc3735a920a3ca505d382bbc416464726573733a206c6f772d6c6576656c2064656c65676174652063616c6c206661696c6564a26469706673582212207885ebc31ec2c96d04c0a05d2ae785c68466b2609d3504ae14e066cd1803a94264736f6c63430008140033",
  "devdoc": {
    "errors": {
      "AmountRequestedIsZero()": [
        {
          "details": "Custom errors"
        }
      ]
    },
    "events": {
      "AdminChanged(address,address)": {
        "details": "Emitted when the admin account has changed."
      },
      "BeaconUpgraded(address)": {
        "details": "Emitted when the beacon is changed."
      },
      "Initialized(uint8)": {
        "details": "Triggered when the contract has been initialized or reinitialized."
      },
      "Paused(address)": {
        "details": "Emitted when the pause is triggered by `account`."
      },
      "PurchasedService(address,uint256,string,uint256,address)": {
        "details": "Emitted when `from` burns a specific amount of WXM in order to receive the `service` This event will serve as a proof of burn in order to provision the `service` to the `recipient`"
      },
      "RoleAdminChanged(bytes32,bytes32,bytes32)": {
        "details": "Emitted when `newAdminRole` is set as ``role``'s admin role, replacing `previousAdminRole` `DEFAULT_ADMIN_ROLE` is the starting admin for all roles, despite {RoleAdminChanged} not being emitted signaling this. _Available since v3.1._"
      },
      "RoleGranted(bytes32,address,address)": {
        "details": "Emitted when `account` is granted `role`. `sender` is the account that originated the contract call, an admin role bearer except when using {AccessControl-_setupRole}."
      },
      "RoleRevoked(bytes32,address,address)": {
        "details": "Emitted when `account` is revoked `role`. `sender` is the account that originated the contract call:   - if using `revokeRole`, it is the admin role bearer   - if using `renounceRole`, it is the role bearer (i.e. `account`)"
      },
      "Unpaused(address)": {
        "details": "Emitted when the pause is lifted by `account`."
      },
      "Upgraded(address)": {
        "details": "Emitted when the implementation is upgraded."
      }
    },
    "kind": "dev",
    "methods": {
      "addService(string,string,uint256,uint256)": {
        "params": {
          "_moq": "The minimum order quantity which can be charged.",
          "_name": "The service name.",
          "_serviceId": "The service identifier.",
          "_vpu": "The value per unit which is charged. The unit is the moq."
        }
      },
      "constructor": {
        "custom:oz-upgrades-unsafe-allow": "constructor"
      },
      "deleteService(string)": {
        "params": {
          "_serviceId": "The service identifier of the service to delete."
        }
      },
      "getRoleAdmin(bytes32)": {
        "details": "Returns the admin role that controls `role`. See {grantRole} and {revokeRole}. To change a role's admin, use {_setRoleAdmin}."
      },
      "getRoleMember(bytes32,uint256)": {
        "details": "Returns one of the accounts that have `role`. `index` must be a value between 0 and {getRoleMemberCount}, non-inclusive. Role bearers are not sorted in any particular way, and their ordering may change at any point. WARNING: When using {getRoleMember} and {getRoleMemberCount}, make sure you perform all queries on the same block. See the following https://forum.openzeppelin.com/t/iterating-over-elements-on-enumerableset-in-openzeppelin-contracts/2296[forum post] for more information."
      },
      "getRoleMemberCount(bytes32)": {
        "details": "Returns the number of accounts that have `role`. Can be used together with {getRoleMember} to enumerate all bearers of a role."
      },
      "getServiceAtIndex(uint256)": {
        "params": {
          "_index": "THe service's index into the serviceIndex array."
        }
      },
      "getServiceByID(string)": {
        "params": {
          "_serviceId": "The service intefier."
        }
      },
      "grantRole(bytes32,address)": {
        "details": "Grants `role` to `account`. If `account` had not been already granted `role`, emits a {RoleGranted} event. Requirements: - the caller must have ``role``'s admin role. May emit a {RoleGranted} event."
      },
      "hasRole(bytes32,address)": {
        "details": "Returns `true` if `account` has been granted `role`."
      },
      "initialize(address,address,address)": {
        "details": "On deployment, some addresses for interacting contracts should be passed.",
        "params": {
          "_wxm": "The address of WXM contract to be used for burning. "
        }
      },
      "pause()": {
        "details": "Only the Admin can pause the smart contract. "
      },
      "paused()": {
        "details": "Returns true if the contract is paused, and false otherwise."
      },
      "proxiableUUID()": {
        "details": "Implementation of the ERC1822 {proxiableUUID} function. This returns the storage slot used by the implementation. It is used to validate the implementation's compatibility when performing an upgrade. IMPORTANT: A proxy pointing at a proxiable contract should not be considered proxiable itself, because this risks bricking a proxy that upgrades to it, by delegating to itself until out of gas. Thus it is critical that this function revert if invoked through a proxy. This is guaranteed by the `notDelegated` modifier."
      },
      "purchaseService(uint256,string)": {
        "details": "ERC-20 tokens require approval to be transfered. The user should first approve an amount of WXM to be used by this contract. Then the following fuction transfers tokens into the DAO revenue pool. When paying with a stablecoin the amount is calculated on the contract",
        "params": {
          "duration": "The duration for the service to purchase.",
          "serviceId": "The service identifier for the service to purchase. "
        }
      },
      "purchaseService(uint256,uint256,string)": {
        "details": "ERC-20 tokens require approval to be transfered. The user should first approve an amount of WXM to be used by this contract. Then the following fuction transfers tokens into the DAO revenue pool. When paying with WXM its up to the caller to specify the correct payment amount. Sending the wrong amount will consider the payment invalid",
        "params": {
          "amount": "The amount to be transferred.",
          "duration": "The duration for the service to purchase.",
          "serviceId": "The service identifier for the service to purchase. "
        }
      },
      "renounceRole(bytes32,address)": {
        "details": "Revokes `role` from the calling account. Roles are often managed via {grantRole} and {revokeRole}: this function's purpose is to provide a mechanism for accounts to lose their privileges if they are compromised (such as when a trusted device is misplaced). If the calling account had been revoked `role`, emits a {RoleRevoked} event. Requirements: - the caller must be `account`. May emit a {RoleRevoked} event."
      },
      "revokeRole(bytes32,address)": {
        "details": "Revokes `role` from `account`. If `account` had been granted `role`, emits a {RoleRevoked} event. Requirements: - the caller must have ``role``'s admin role. May emit a {RoleRevoked} event."
      },
      "setBasePaymentToken(address)": {
        "params": {
          "_basePaymentToken": "The contract address of the chosen ERC20 token."
        }
      },
      "supportsInterface(bytes4)": {
        "details": "See {IERC165-supportsInterface}."
      },
      "unpause()": {
        "details": "Only the Admin can unpause the smart contract.. "
      },
      "updateServiceMOQ(string,uint256)": {
        "params": {
          "_moq": "The new minimum order quantity for the service.",
          "_serviceId": "The service identifier."
        }
      },
      "updateServiceVPU(string,uint256)": {
        "params": {
          "_serviceId": "The service identifier.",
          "_vpu": "The new value per unit for the service."
        }
      },
      "upgradeTo(address)": {
        "custom:oz-upgrades-unsafe-allow-reachable": "delegatecall",
        "details": "Upgrade the implementation of the proxy to `newImplementation`. Calls {_authorizeUpgrade}. Emits an {Upgraded} event."
      },
      "upgradeToAndCall(address,bytes)": {
        "custom:oz-upgrades-unsafe-allow-reachable": "delegatecall",
        "details": "Upgrade the implementation of the proxy to `newImplementation`, and subsequently execute the function call encoded in `data`. Calls {_authorizeUpgrade}. Emits an {Upgraded} event."
      }
    },
    "title": "ServicePool contract.",
    "version": 1
  },
  "userdoc": {
    "kind": "user",
    "methods": {
      "addService(string,string,uint256,uint256)": {
        "notice": "Add a new service into the service catalog."
      },
      "deleteService(string)": {
        "notice": "Delete a service from the catalog."
      },
      "getServiceAtIndex(uint256)": {
        "notice": "Get a service identifier by using its index."
      },
      "getServiceByID(string)": {
        "notice": "Get the service info (index, name, moq, vpu) by using its identifier."
      },
      "getServiceCount()": {
        "notice": "Get the number of services existing in the catalog."
      },
      "initialize(address,address,address)": {
        "notice": "Initialize called on deployment, initiates the contract and its proxy."
      },
      "pause()": {
        "notice": "Pause all ops in ServicePool."
      },
      "purchaseService(uint256,string)": {
        "notice": "Transfer tokens and store info about the transaction."
      },
      "purchaseService(uint256,uint256,string)": {
        "notice": "Purchase a service from the DAO Service Catalog"
      },
      "setBasePaymentToken(address)": {
        "notice": "Set the base ERC20 token."
      },
      "unpause()": {
        "notice": "Unpause all ops in ServicePool."
      },
      "updateServiceMOQ(string,uint256)": {
        "notice": "Update the minimum order quantity in each service."
      },
      "updateServiceVPU(string,uint256)": {
        "notice": "Update the value per unit in each service."
      }
    },
    "notice": "This contract accounts for transferring WXM or another ERC20 tokens for getting services. ",
    "version": 1
  },
  "storageLayout": {
    "storage": [
      {
        "astId": 9014,
        "contract": "src/ServicePool.sol:ServicePool",
        "label": "_initialized",
        "offset": 0,
        "slot": "0",
        "type": "t_uint8"
      },
      {
        "astId": 9017,
        "contract": "src/ServicePool.sol:ServicePool",
        "label": "_initializing",
        "offset": 1,
        "slot": "0",
        "type": "t_bool"
      },
      {
        "astId": 8996,
        "contract": "src/ServicePool.sol:ServicePool",
        "label": "__gap",
        "offset": 0,
        "slot": "1",
        "type": "t_array(t_uint256)50_storage"
      },
      {
        "astId": 9311,
        "contract": "src/ServicePool.sol:ServicePool",
        "label": "__gap",
        "offset": 0,
        "slot": "51",
        "type": "t_array(t_uint256)50_storage"
      },
      {
        "astId": 9453,
        "contract": "src/ServicePool.sol:ServicePool",
        "label": "_status",
        "offset": 0,
        "slot": "101",
        "type": "t_uint256"
      },
      {
        "astId": 9522,
        "contract": "src/ServicePool.sol:ServicePool",
        "label": "__gap",
        "offset": 0,
        "slot": "102",
        "type": "t_array(t_uint256)49_storage"
      },
      {
        "astId": 9894,
        "contract": "src/ServicePool.sol:ServicePool",
        "label": "__gap",
        "offset": 0,
        "slot": "151",
        "type": "t_array(t_uint256)50_storage"
      },
      {
        "astId": 10277,
        "contract": "src/ServicePool.sol:ServicePool",
        "label": "__gap",
        "offset": 0,
        "slot": "201",
        "type": "t_array(t_uint256)50_storage"
      },
      {
        "astId": 8248,
        "contract": "src/ServicePool.sol:ServicePool",
        "label": "_roles",
        "offset": 0,
        "slot": "251",
        "type": "t_mapping(t_bytes32,t_struct(RoleData)8243_storage)"
      },
      {
        "astId": 8543,
        "contract": "src/ServicePool.sol:ServicePool",
        "label": "__gap",
        "offset": 0,
        "slot": "252",
        "type": "t_array(t_uint256)49_storage"
      },
      {
        "astId": 8097,
        "contract": "src/ServicePool.sol:ServicePool",
        "label": "_roleMembers",
        "offset": 0,
        "slot": "301",
        "type": "t_mapping(t_bytes32,t_struct(AddressSet)11587_storage)"
      },
      {
        "astId": 8207,
        "contract": "src/ServicePool.sol:ServicePool",
        "label": "__gap",
        "offset": 0,
        "slot": "302",
        "type": "t_array(t_uint256)49_storage"
      },
      {
        "astId": 9333,
        "contract": "src/ServicePool.sol:ServicePool",
        "label": "_paused",
        "offset": 0,
        "slot": "351",
        "type": "t_bool"
      },
      {
        "astId": 9438,
        "contract": "src/ServicePool.sol:ServicePool",
        "label": "__gap",
        "offset": 0,
        "slot": "352",
        "type": "t_array(t_uint256)49_storage"
      },
      {
        "astId": 18041,
        "contract": "src/ServicePool.sol:ServicePool",
        "label": "wxm",
        "offset": 0,
        "slot": "401",
        "type": "t_contract(IWeatherXM)19417"
      },
      {
        "astId": 18044,
        "contract": "src/ServicePool.sol:ServicePool",
        "label": "basePaymentToken",
        "offset": 0,
        "slot": "402",
        "type": "t_contract(IERC20)13242"
      },
      {
        "astId": 18046,
        "contract": "src/ServicePool.sol:ServicePool",
        "label": "treasury",
        "offset": 0,
        "slot": "403",
        "type": "t_address"
      },
      {
        "astId": 18093,
        "contract": "src/ServicePool.sol:ServicePool",
        "label": "serviceCatalog",
        "offset": 0,
        "slot": "404",
        "type": "t_mapping(t_string_memory_ptr,t_struct(Service)18088_storage)"
      },
      {
        "astId": 18096,
        "contract": "src/ServicePool.sol:ServicePool",
        "label": "serviceIndex",
        "offset": 0,
        "slot": "405",
        "type": "t_array(t_string_storage)dyn_storage"
      }
    ],
    "types": {
      "t_address": {
        "encoding": "inplace",
        "label": "address",
        "numberOfBytes": "20"
      },
      "t_array(t_bytes32)dyn_storage": {
        "base": "t_bytes32",
        "encoding": "dynamic_array",
        "label": "bytes32[]",
        "numberOfBytes": "32"
      },
      "t_array(t_string_storage)dyn_storage": {
        "base": "t_string_storage",
        "encoding": "dynamic_array",
        "label": "string[]",
        "numberOfBytes": "32"
      },
      "t_array(t_uint256)49_storage": {
        "base": "t_uint256",
        "encoding": "inplace",
        "label": "uint256[49]",
        "numberOfBytes": "1568"
      },
      "t_array(t_uint256)50_storage": {
        "base": "t_uint256",
        "encoding": "inplace",
        "label": "uint256[50]",
        "numberOfBytes": "1600"
      },
      "t_bool": {
        "encoding": "inplace",
        "label": "bool",
        "numberOfBytes": "1"
      },
      "t_bytes32": {
        "encoding": "inplace",
        "label": "bytes32",
        "numberOfBytes": "32"
      },
      "t_contract(IERC20)13242": {
        "encoding": "inplace",
        "label": "contract IERC20",
        "numberOfBytes": "20"
      },
      "t_contract(IWeatherXM)19417": {
        "encoding": "inplace",
        "label": "contract IWeatherXM",
        "numberOfBytes": "20"
      },
      "t_mapping(t_address,t_bool)": {
        "encoding": "mapping",
        "key": "t_address",
        "label": "mapping(address => bool)",
        "numberOfBytes": "32",
        "value": "t_bool"
      },
      "t_mapping(t_bytes32,t_struct(AddressSet)11587_storage)": {
        "encoding": "mapping",
        "key": "t_bytes32",
        "label": "mapping(bytes32 => struct EnumerableSetUpgradeable.AddressSet)",
        "numberOfBytes": "32",
        "value": "t_struct(AddressSet)11587_storage"
      },
      "t_mapping(t_bytes32,t_struct(RoleData)8243_storage)": {
        "encoding": "mapping",
        "key": "t_bytes32",
        "label": "mapping(bytes32 => struct AccessControlUpgradeable.RoleData)",
        "numberOfBytes": "32",
        "value": "t_struct(RoleData)8243_storage"
      },
      "t_mapping(t_bytes32,t_uint256)": {
        "encoding": "mapping",
        "key": "t_bytes32",
        "label": "mapping(bytes32 => uint256)",
        "numberOfBytes": "32",
        "value": "t_uint256"
      },
      "t_mapping(t_string_memory_ptr,t_struct(Service)18088_storage)": {
        "encoding": "mapping",
        "key": "t_string_memory_ptr",
        "label": "mapping(string => struct ServicePool.Service)",
        "numberOfBytes": "32",
        "value": "t_struct(Service)18088_storage"
      },
      "t_string_memory_ptr": {
        "encoding": "bytes",
        "label": "string",
        "numberOfBytes": "32"
      },
      "t_string_storage": {
        "encoding": "bytes",
        "label": "string",
        "numberOfBytes": "32"
      },
      "t_struct(AddressSet)11587_storage": {
        "encoding": "inplace",
        "label": "struct EnumerableSetUpgradeable.AddressSet",
        "members": [
          {
            "astId": 11586,
            "contract": "src/ServicePool.sol:ServicePool",
            "label": "_inner",
            "offset": 0,
            "slot": "0",
            "type": "t_struct(Set)11272_storage"
          }
        ],
        "numberOfBytes": "64"
      },
      "t_struct(RoleData)8243_storage": {
        "encoding": "inplace",
        "label": "struct AccessControlUpgradeable.RoleData",
        "members": [
          {
            "astId": 8240,
            "contract": "src/ServicePool.sol:ServicePool",
            "label": "members",
            "offset": 0,
            "slot": "0",
            "type": "t_mapping(t_address,t_bool)"
          },
          {
            "astId": 8242,
            "contract": "src/ServicePool.sol:ServicePool",
            "label": "adminRole",
            "offset": 0,
            "slot": "1",
            "type": "t_bytes32"
          }
        ],
        "numberOfBytes": "64"
      },
      "t_struct(Service)18088_storage": {
        "encoding": "inplace",
        "label": "struct ServicePool.Service",
        "members": [
          {
            "astId": 18081,
            "contract": "src/ServicePool.sol:ServicePool",
            "label": "index",
            "offset": 0,
            "slot": "0",
            "type": "t_uint256"
          },
          {
            "astId": 18083,
            "contract": "src/ServicePool.sol:ServicePool",
            "label": "name",
            "offset": 0,
            "slot": "1",
            "type": "t_string_storage"
          },
          {
            "astId": 18085,
            "contract": "src/ServicePool.sol:ServicePool",
            "label": "moq",
            "offset": 0,
            "slot": "2",
            "type": "t_uint256"
          },
          {
            "astId": 18087,
            "contract": "src/ServicePool.sol:ServicePool",
            "label": "vpu",
            "offset": 0,
            "slot": "3",
            "type": "t_uint256"
          }
        ],
        "numberOfBytes": "128"
      },
      "t_struct(Set)11272_storage": {
        "encoding": "inplace",
        "label": "struct EnumerableSetUpgradeable.Set",
        "members": [
          {
            "astId": 11267,
            "contract": "src/ServicePool.sol:ServicePool",
            "label": "_values",
            "offset": 0,
            "slot": "0",
            "type": "t_array(t_bytes32)dyn_storage"
          },
          {
            "astId": 11271,
            "contract": "src/ServicePool.sol:ServicePool",
            "label": "_indexes",
            "offset": 0,
            "slot": "1",
            "type": "t_mapping(t_bytes32,t_uint256)"
          }
        ],
        "numberOfBytes": "64"
      },
      "t_uint256": {
        "encoding": "inplace",
        "label": "uint256",
        "numberOfBytes": "32"
      },
      "t_uint8": {
        "encoding": "inplace",
        "label": "uint8",
        "numberOfBytes": "1"
      }
    }
  }
}